{
  "contractName": "Beamre",
  "abi": [
    {
      "inputs": [
        {
          "internalType": "address",
          "name": "config_",
          "type": "address"
        },
        {
          "internalType": "address",
          "name": "metreon_",
          "type": "address"
        }
      ],
      "stateMutability": "nonpayable",
      "type": "constructor"
    },
    {
      "inputs": [
        {
          "internalType": "address",
          "name": "router",
          "type": "address"
        }
      ],
      "name": "InvalidRouter",
      "type": "error"
    },
    {
      "anonymous": false,
      "inputs": [
        {
          "indexed": true,
          "internalType": "address",
          "name": "previousOwner",
          "type": "address"
        },
        {
          "indexed": true,
          "internalType": "address",
          "name": "newOwner",
          "type": "address"
        }
      ],
      "name": "OwnershipTransferred",
      "type": "event"
    },
    {
      "inputs": [
        {
          "internalType": "address",
          "name": "",
          "type": "address"
        },
        {
          "internalType": "uint256",
          "name": "",
          "type": "uint256"
        }
      ],
      "name": "_actions",
      "outputs": [
        {
          "internalType": "bytes32",
          "name": "",
          "type": "bytes32"
        }
      ],
      "stateMutability": "view",
      "type": "function"
    },
    {
      "inputs": [
        {
          "internalType": "uint256",
          "name": "",
          "type": "uint256"
        }
      ],
      "name": "_contracts",
      "outputs": [
        {
          "internalType": "address",
          "name": "",
          "type": "address"
        }
      ],
      "stateMutability": "view",
      "type": "function"
    },
    {
      "inputs": [],
      "name": "getMetreon",
      "outputs": [
        {
          "internalType": "address",
          "name": "",
          "type": "address"
        }
      ],
      "stateMutability": "view",
      "type": "function"
    },
    {
      "inputs": [
        {
          "components": [
            {
              "internalType": "bytes32",
              "name": "messageId",
              "type": "bytes32"
            },
            {
              "internalType": "uint256",
              "name": "fromChainId",
              "type": "uint256"
            },
            {
              "internalType": "address",
              "name": "sender",
              "type": "address"
            },
            {
              "internalType": "bytes",
              "name": "payload",
              "type": "bytes"
            },
            {
              "components": [
                {
                  "internalType": "address",
                  "name": "tokenId",
                  "type": "address"
                },
                {
                  "internalType": "uint256",
                  "name": "amount",
                  "type": "uint256"
                }
              ],
              "internalType": "struct Data.Token[]",
              "name": "tokens",
              "type": "tuple[]"
            }
          ],
          "internalType": "struct Data.IncomingMessage",
          "name": "message",
          "type": "tuple"
        }
      ],
      "name": "metreonReceive",
      "outputs": [],
      "stateMutability": "nonpayable",
      "type": "function"
    },
    {
      "inputs": [],
      "name": "owner",
      "outputs": [
        {
          "internalType": "address",
          "name": "",
          "type": "address"
        }
      ],
      "stateMutability": "view",
      "type": "function"
    },
    {
      "inputs": [],
      "name": "renounceOwnership",
      "outputs": [],
      "stateMutability": "nonpayable",
      "type": "function"
    },
    {
      "inputs": [
        {
          "internalType": "address",
          "name": "newOwner",
          "type": "address"
        }
      ],
      "name": "transferOwnership",
      "outputs": [],
      "stateMutability": "nonpayable",
      "type": "function"
    },
    {
      "inputs": [
        {
          "internalType": "uint256",
          "name": "chainId",
          "type": "uint256"
        },
        {
          "internalType": "address",
          "name": "contractId",
          "type": "address"
        }
      ],
      "name": "setContract",
      "outputs": [],
      "stateMutability": "nonpayable",
      "type": "function"
    },
    {
      "inputs": [
        {
          "internalType": "uint256",
          "name": "toChainId",
          "type": "uint256"
        },
        {
          "components": [
            {
              "internalType": "address",
              "name": "tokenId",
              "type": "address"
            },
            {
              "internalType": "uint256",
              "name": "amount",
              "type": "uint256"
            }
          ],
          "internalType": "struct Data.Token[]",
          "name": "tokens",
          "type": "tuple[]"
        },
        {
          "internalType": "address",
          "name": "tokenPool",
          "type": "address"
        }
      ],
      "name": "bridgeToken",
      "outputs": [],
      "stateMutability": "payable",
      "type": "function"
    }
  ],
  "bytecode": "0x60a03461011157610f1080380390601f19601f83011683019183831067ffffffffffffffff84111761011657808492604094855283398101031261011157610052602061004b83610145565b9201610145565b60008054600160a060020a0319808216339081178455604051959194600160a060020a039492939092908516907f8be0079c531659141344cd1fd0a4f28419497f9722a3daafe3b4186f6b6457e09080a38281169485156100e25750608052168160015416176001556002541617600255604051610db6908161015a823960805181818161022d0152610a620152f35b807fd7f73334000000000000000000000000000000000000000000000000000000006024925260006004820152fd5b600080fd5b7f4e487b7100000000000000000000000000000000000000000000000000000000600052604160045260246000fd5b5190600160a060020a03821682036101115756fe608080604052600436101561001357600080fd5b7c01000000000000000000000000000000000000000000000000000000006000350490816367acd8a014610aec57508063715018a614610a86578063737fb66b14610a425780638599fe891461066257806389e865a9146106185780638da5cb5b146105f157806393c08ad3146101ef578063b2bfc835146101955763f2fde38b1461009e57600080fd5b34610190576020366003190112610190576100b7610b5b565b6100bf610c5f565b600160a060020a0380911690811561010c5760005482600160a060020a0319821617600055167f8be0079c531659141344cd1fd0a4f28419497f9722a3daafe3b4186f6b6457e0600080a3005b60846040517f08c379a000000000000000000000000000000000000000000000000000000000815260206004820152602660248201527f4f776e61626c653a206e6577206f776e657220697320746865207a65726f206160448201527f64647265737300000000000000000000000000000000000000000000000000006064820152fd5b600080fd5b34610190576040366003190112610190576101ae610b5b565b600160a060020a036024359116600052600360205260406000208054821015610190576020916101dd91610c18565b90546008604051920260020a90048152f35b3461019057600319602036820112610190576004359067ffffffffffffffff908183116101905760a09083360301126101905733600160a060020a037f000000000000000000000000000000000000000000000000000000000000000016036105c1576040519060a082018281108282111761059257604052826004013582526024830135602083015261028560448401610b71565b604083015260648301358181116101905783013660238201121561019057600481013582811161059257604051916102c7601f8301601f191660200184610b39565b818352366024838301011161019057816000926024602093018386013783010152606083015260848301359081116101905761030a839160043691840101610b85565b6080830152600154600160a060020a03169160005b60808201515181101561045857610346816103406084860186600401610d0f565b90610d45565b35600160a060020a03811680910361019057604051907ffb0d2b50000000000000000000000000000000000000000000000000000000008252602485013560048301526024820152602081604481885afa90811561044c57600091610406575b50906103fb816104019360206103c68361034060848b018b600401610d0f565b0135600160a060020a03604051926103dd84610b1d565b16825260208201526080860151906103f58383610d55565b52610d55565b50610cd1565b61031f565b90506020813d602011610444575b8161042160209383610b39565b81010312610190575190600160a060020a038216820361019057906103fb6103a6565b3d9150610414565b6040513d6000823e3d90fd5b5060608101516020818051810103126101905760200151600160a060020a0381168091036101905760005b60808301518051821015610590578161049b91610d55565b518051600160a060020a031673eeeeeeeeeeeeeeeeeeeeeeeeeeeeeeeeeeeeeeee81036104f7575060008080602081940151868282156104ee575bf11561044c576104e7608091610cd1565b9050610483565b506108fc6104d6565b6020918201516040517fa9059cbb000000000000000000000000000000000000000000000000000000008152600160a060020a03861660048201526024810191909152929190839060449082906000905af190811561044c576080926104e7926105615750610cd1565b6105829060203d602011610589575b61057a8183610b39565b810190610d68565b50856103fb565b503d610570565b005b7f4e487b7100000000000000000000000000000000000000000000000000000000600052604160045260246000fd5b60246040517fd7f73334000000000000000000000000000000000000000000000000000000008152336004820152fd5b34610190576000366003190112610190576020600160a060020a0360005416604051908152f35b3461019057604036600319011261019057602435600160a060020a038116809103610190576004356000526004602052604060002090600160a060020a0319825416179055600080f35b60603660031901126101905767ffffffffffffffff6024358181116101905761068f903690600401610b85565b604435600160a060020a0381168103610190576004356000526004602052600160a060020a036040600020541660405190336020830152602082526106d382610b1d565b6040519460808601908111868210176105925760405260043585526020850152604084015281606084015260005b825181101561080e576107148184610d55565b5190600160a060020a03825116602083015192604051937f23b872dd00000000000000000000000000000000000000000000000000000000855233600486015230602486015260448501526020846064816000865af191821561044c576107d3946020936107f1575b50600254918301516040517f095ea7b3000000000000000000000000000000000000000000000000000000008152600160a060020a03909316600484015260248301529093849190829060009082906044820190565b03925af191821561044c576107ec926105615750610cd1565b610701565b61080790843d86116105895761057a8183610b39565b508861077d565b5082600160a060020a036002541690604051907f127e8e4d0000000000000000000000000000000000000000000000000000000082526004356004830152602082602481865afa91821561044c57600092610a0e575b508134106101905792906040519384927f786134be0000000000000000000000000000000000000000000000000000000084526040600485015281516044850152600160a060020a0360208301511660648501526040820151608060848601528051908160c487015260005b8281106109f6575050600060e48287010152601f80199101168401916020610104606060e486019301519460a08882030160a489015285518094520193019060005b8181106109c85750505091838092600160a060020a036020979516602483015203925af190811561044c57600091610996575b5033600052600360205260406000208054680100000000000000008110156105925761097691600182018155610c18565b600882939254910260020a91826000039283910216911916179055600080f35b90506020813d6020116109c0575b816109b160209383610b39565b81010312610190575181610945565b3d91506109a4565b82518051600160a060020a031686526020908101518187015289975060409095019490920191600101610912565b602082820181015160e48b84010152899750016108d0565b9091506020813d602011610a3a575b81610a2a60209383610b39565b8101031261019057519084610864565b3d9150610a1d565b34610190576000366003190112610190576020604051600160a060020a037f0000000000000000000000000000000000000000000000000000000000000000168152f35b3461019057600036600319011261019057610a9f610c5f565b6000805473ffffffffffffffffffffffffffffffffffffffff1981168255600160a060020a03167f8be0079c531659141344cd1fd0a4f28419497f9722a3daafe3b4186f6b6457e08280a3005b346101905760203660031901126101905760209060043560005260048252600160a060020a03604060002054168152f35b6040810190811067ffffffffffffffff82111761059257604052565b90601f8019910116810190811067ffffffffffffffff82111761059257604052565b60043590600160a060020a038216820361019057565b3590600160a060020a038216820361019057565b9080601f830112156101905781359167ffffffffffffffff831161059257604091825193602091610bba838084020187610b39565b8186528285818801930285010193818511610190578301915b848310610be35750505050505090565b8583830312610190578386918251610bfa81610b1d565b610c0386610b71565b81528286013583820152815201920191610bd3565b8054821015610c305760005260206000200190600090565b7f4e487b7100000000000000000000000000000000000000000000000000000000600052603260045260246000fd5b600160a060020a03600054163303610c7357565b60646040517f08c379a000000000000000000000000000000000000000000000000000000000815260206004820152602060248201527f4f776e61626c653a2063616c6c6572206973206e6f7420746865206f776e65726044820152fd5b6000198114610ce05760010190565b7f4e487b7100000000000000000000000000000000000000000000000000000000600052601160045260246000fd5b903590601e1981360301821215610190570180359067ffffffffffffffff82116101905760200191604082023603831361019057565b9190811015610c30576040020190565b8051821015610c30576020809202010190565b9081602091031261019057518015158103610190579056fea264697066735822122055232f814b1a6f80231c50754688905c229193982e621011e15646a9d789961c64736f6c63430008110033",
  "immutableReferences": {
    "763": [
      {
        "length": 32,
        "start": 557
      },
      {
        "length": 32,
        "start": 2658
      }
    ]
  },
  "source": "// SPDX-License-Identifier: MIT\r\npragma solidity ^0.8.17;\r\n\r\nimport {Data} from \"../libraries/Data.sol\";\r\nimport {IMetreon} from \"../interfaces/IMetreon.sol\";\r\nimport {MetreonReceiver} from \"../MetreonReceiver.sol\";\r\n\r\nimport {IERC20} from \"@openzeppelin/contracts/token/ERC20/IERC20.sol\";\r\n\r\ncontract Beamre is MetreonReceiver {\r\n    IMetreon private _metreon;\r\n\r\n    mapping(address => bytes32[]) public _actions;\r\n    mapping(uint256 => address) public _contracts;\r\n\r\n    constructor(\r\n        address config_,\r\n        address metreon_\r\n    ) MetreonReceiver(config_, metreon_) {\r\n        _metreon = IMetreon(getMetreon());\r\n    }\r\n\r\n    function setContract(uint256 chainId, address contractId) external {\r\n        _contracts[chainId] = contractId;\r\n    }\r\n\r\n    function bridgeToken(\r\n        uint256 toChainId,\r\n        Data.Token[] memory tokens,\r\n        address tokenPool\r\n    ) external payable {\r\n        Data.OutgoingMessage memory message = Data.OutgoingMessage({\r\n            toChainId: toChainId,\r\n            receiver: _contracts[toChainId],\r\n            payload: abi.encode(_msgSender()),\r\n            tokens: tokens\r\n        });\r\n\r\n        for (uint256 index = 0; index < tokens.length; index++) {\r\n            Data.Token memory token = tokens[index];\r\n\r\n            IERC20 tokenContract = IERC20(token.tokenId);\r\n\r\n            tokenContract.transferFrom(\r\n                _msgSender(),\r\n                address(this),\r\n                token.amount\r\n            );\r\n\r\n            tokenContract.approve(address(_metreon), token.amount);\r\n        }\r\n\r\n        uint256 fee = _metreon.estimateFee(toChainId);\r\n\r\n        require(msg.value >= fee);\r\n\r\n        bytes32 messageId = _metreon.sendMessage{value: fee}(\r\n            message,\r\n            tokenPool\r\n        );\r\n\r\n        _actions[_msgSender()].push(messageId);\r\n    }\r\n\r\n    function _metreonReceive(\r\n        Data.IncomingMessage memory message\r\n    ) internal override {\r\n        address receiver = abi.decode(message.payload, (address));\r\n\r\n        for (uint256 index = 0; index < message.tokens.length; index++) {\r\n            Data.Token memory token = message.tokens[index];\r\n\r\n            if (token.tokenId == 0xEeeeeEeeeEeEeeEeEeEeeEEEeeeeEeeeeeeeEEeE) {\r\n                payable(receiver).transfer(token.amount);\r\n            } else {\r\n                IERC20 tokenContract = IERC20(token.tokenId);\r\n                tokenContract.transfer(receiver, token.amount);\r\n            }\r\n        }\r\n    }\r\n}\r\n",
  "sourcePath": "C:\\Users\\DELL\\Documents\\metreon.xyz\\smart-contracts\\contracts\\beamre\\Beamre.sol",
  "compiler": {
    "name": "solc",
    "version": "0.8.17+commit.8df45f5f.Emscripten.clang"
  },
  "schemaVersion": "3.4.11",
  "updatedAt": "2024-04-17T21:32:19.769Z",
  "devdoc": {
    "kind": "dev",
    "methods": {
      "owner()": {
        "details": "Returns the address of the current owner."
      },
      "renounceOwnership()": {
        "details": "Leaves the contract without owner. It will not be possible to call `onlyOwner` functions. Can only be called by the current owner. NOTE: Renouncing ownership will leave the contract without an owner, thereby disabling any functionality that is only available to the owner."
      },
      "transferOwnership(address)": {
        "details": "Transfers ownership of the contract to a new account (`newOwner`). Can only be called by the current owner."
      }
    },
    "version": 1
  },
  "userdoc": {
    "kind": "user",
    "methods": {},
    "version": 1
  }
}