{
  "contractName": "Beamre",
  "abi": [
    {
      "inputs": [
        {
          "internalType": "address",
          "name": "config_",
          "type": "address"
        },
        {
          "internalType": "address",
          "name": "metreon_",
          "type": "address"
        }
      ],
      "stateMutability": "nonpayable",
      "type": "constructor"
    },
    {
      "inputs": [
        {
          "internalType": "address",
          "name": "router",
          "type": "address"
        }
      ],
      "name": "InvalidRouter",
      "type": "error"
    },
    {
      "anonymous": false,
      "inputs": [
        {
          "indexed": true,
          "internalType": "address",
          "name": "previousOwner",
          "type": "address"
        },
        {
          "indexed": true,
          "internalType": "address",
          "name": "newOwner",
          "type": "address"
        }
      ],
      "name": "OwnershipTransferred",
      "type": "event"
    },
    {
      "inputs": [
        {
          "internalType": "address",
          "name": "",
          "type": "address"
        },
        {
          "internalType": "uint256",
          "name": "",
          "type": "uint256"
        }
      ],
      "name": "_actions",
      "outputs": [
        {
          "internalType": "bytes32",
          "name": "",
          "type": "bytes32"
        }
      ],
      "stateMutability": "view",
      "type": "function"
    },
    {
      "inputs": [
        {
          "internalType": "uint256",
          "name": "",
          "type": "uint256"
        }
      ],
      "name": "_contracts",
      "outputs": [
        {
          "internalType": "address",
          "name": "",
          "type": "address"
        }
      ],
      "stateMutability": "view",
      "type": "function"
    },
    {
      "inputs": [],
      "name": "getMetreon",
      "outputs": [
        {
          "internalType": "address",
          "name": "",
          "type": "address"
        }
      ],
      "stateMutability": "view",
      "type": "function"
    },
    {
      "inputs": [
        {
          "components": [
            {
              "internalType": "bytes32",
              "name": "messageId",
              "type": "bytes32"
            },
            {
              "internalType": "uint256",
              "name": "fromChainId",
              "type": "uint256"
            },
            {
              "internalType": "address",
              "name": "sender",
              "type": "address"
            },
            {
              "internalType": "bytes",
              "name": "payload",
              "type": "bytes"
            },
            {
              "components": [
                {
                  "internalType": "address",
                  "name": "tokenId",
                  "type": "address"
                },
                {
                  "internalType": "uint256",
                  "name": "amount",
                  "type": "uint256"
                }
              ],
              "internalType": "struct Data.Token[]",
              "name": "tokens",
              "type": "tuple[]"
            }
          ],
          "internalType": "struct Data.IncomingMessage",
          "name": "message",
          "type": "tuple"
        }
      ],
      "name": "metreonReceive",
      "outputs": [],
      "stateMutability": "nonpayable",
      "type": "function"
    },
    {
      "inputs": [],
      "name": "owner",
      "outputs": [
        {
          "internalType": "address",
          "name": "",
          "type": "address"
        }
      ],
      "stateMutability": "view",
      "type": "function"
    },
    {
      "inputs": [],
      "name": "renounceOwnership",
      "outputs": [],
      "stateMutability": "nonpayable",
      "type": "function"
    },
    {
      "inputs": [
        {
          "internalType": "address",
          "name": "newOwner",
          "type": "address"
        }
      ],
      "name": "transferOwnership",
      "outputs": [],
      "stateMutability": "nonpayable",
      "type": "function"
    },
    {
      "inputs": [
        {
          "internalType": "uint256",
          "name": "chainId",
          "type": "uint256"
        },
        {
          "internalType": "address",
          "name": "contractId",
          "type": "address"
        }
      ],
      "name": "setContract",
      "outputs": [],
      "stateMutability": "nonpayable",
      "type": "function"
    },
    {
      "inputs": [
        {
          "internalType": "uint256",
          "name": "toChainId",
          "type": "uint256"
        },
        {
          "components": [
            {
              "internalType": "address",
              "name": "tokenId",
              "type": "address"
            },
            {
              "internalType": "uint256",
              "name": "amount",
              "type": "uint256"
            }
          ],
          "internalType": "struct Data.Token[]",
          "name": "tokens",
          "type": "tuple[]"
        },
        {
          "internalType": "address",
          "name": "tokenPool",
          "type": "address"
        }
      ],
      "name": "bridgeToken",
      "outputs": [],
      "stateMutability": "payable",
      "type": "function"
    }
  ],
  "bytecode": "0x60a034610116576111ef80380390601f19601f83011683019183831067ffffffffffffffff84111761011b57808492604094855283398101031261011657610052602061004b8361014a565b920161014a565b60008054600160a060020a0319808216339081178455604051959194600160a060020a039492939092908516907f8be0079c531659141344cd1fd0a4f28419497f9722a3daafe3b4186f6b6457e09080a38281169485156100e757506080521681600154161760015560016002556003541617600355604051611090908161015f82396080518181816102160152610b380152f35b807fd7f73334000000000000000000000000000000000000000000000000000000006024925260006004820152fd5b600080fd5b7f4e487b7100000000000000000000000000000000000000000000000000000000600052604160045260246000fd5b5190600160a060020a03821682036101165756fe608080604052600436101561001357600080fd5b7c01000000000000000000000000000000000000000000000000000000006000350490816367acd8a014610bc257508063715018a614610b5c578063737fb66b14610b185780638599fe891461062357806389e865a9146105d95780638da5cb5b146105b257806393c08ad3146101d8578063b2bfc8351461017e5763f2fde38b1461009e57600080fd5b34610179576020366003190112610179576100b7610c31565b6100bf610d35565b600160a060020a0380911690811561010c5760005482600160a060020a0319821617600055167f8be0079c531659141344cd1fd0a4f28419497f9722a3daafe3b4186f6b6457e0600080a3005b608460405160e560020a62461bcd02815260206004820152602660248201527f4f776e61626c653a206e6577206f776e657220697320746865207a65726f206160448201527f64647265737300000000000000000000000000000000000000000000000000006064820152fd5b600080fd5b3461017957604036600319011261017957610197610c31565b600160a060020a036024359116600052600460205260406000208054821015610179576020916101c691610cee565b90546008604051920260020a90048152f35b3461017957600319602036820112610179576004359067ffffffffffffffff908183116101795760a09083360301126101795733600160a060020a037f00000000000000000000000000000000000000000000000000000000000000001603610582576040519060a082018281108282111761055357604052826004013582526024830135602083015261026e60448401610c47565b604083015260648301358181116101795783013660238201121561017957600481013561029a81610d90565b916102a86040519384610c0f565b81835236602483830101116101795781600092602460209301838601378301015260608301526084830135908111610179576102eb839160043691840101610c5b565b6080830152600154600160a060020a03169160005b60808201515181101561043957610327816103216084860186600401610dea565b90610e20565b35600160a060020a03811680910361017957604051907ffb0d2b50000000000000000000000000000000000000000000000000000000008252602485013560048301526024820152602081604481885afa90811561042d576000916103e7575b50906103dc816103e29360206103a78361032160848b018b600401610dea565b0135600160a060020a03604051926103be84610bf3565b16825260208201526080860151906103d68383610e30565b52610e30565b50610dac565b610300565b90506020813d602011610425575b8161040260209383610c0f565b81010312610179575190600160a060020a038216820361017957906103dc610387565b3d91506103f5565b6040513d6000823e3d90fd5b5060608101516020818051810103126101795760200151600160a060020a0381168091036101795760005b60808301518051821015610551578161047c91610e30565b518051600160a060020a031673eeeeeeeeeeeeeeeeeeeeeeeeeeeeeeeeeeeeeeee81036104d8575060008080602081940151868282156104cf575bf11561042d576104c8608091610dac565b9050610464565b506108fc6104b7565b9161054c61053960809461054760206104c89601516040519384917fa9059cbb0000000000000000000000000000000000000000000000000000000060208401528a6024840160209093929193600160a060020a0360408201951681520152565b03601f198101845283610c0f565b610e83565b610dac565b005b7f4e487b7100000000000000000000000000000000000000000000000000000000600052604160045260246000fd5b60246040517fd7f73334000000000000000000000000000000000000000000000000000000008152336004820152fd5b34610179576000366003190112610179576020600160a060020a0360005416604051908152f35b3461017957604036600319011261017957602435600160a060020a038116809103610179576004356000526005602052604060002090600160a060020a0319825416179055600080f35b60603660031901126101795760243567ffffffffffffffff81116101795761064f903690600401610c5b565b60443590600160a060020a0382168203610179576002805414610ad157600280556004356000526005602052600160a060020a036040600020541691604051336020820152602081526106a181610bf3565b604051936080850185811067ffffffffffffffff8211176105535760405260043585526020850152604084015281606084015260005b82518110156108cf576106ea8184610e30565b5190600160a060020a03825116916020810151604051907f23b872dd0000000000000000000000000000000000000000000000000000000060208301523360248301523060448301526064820152606481528060a081011067ffffffffffffffff60a083011117610553578060a0610766920160405284610e83565b6020600160a060020a03600354169101518015801561084b575b156107de576040517f095ea7b3000000000000000000000000000000000000000000000000000000006020820152600160a060020a03909216602483015260448201526107d99261054c91906105478260648101610539565b6106d7565b608460405160e560020a62461bcd02815260206004820152603660248201527f5361666545524332303a20617070726f76652066726f6d206e6f6e2d7a65726f60448201527f20746f206e6f6e2d7a65726f20616c6c6f77616e6365000000000000000000006064820152fd5b506040517fdd62ed3e000000000000000000000000000000000000000000000000000000008152306004820152826024820152602081604481885afa90811561042d5760009161089d575b5015610780565b90506020813d6020116108c7575b816108b860209383610c0f565b81010312610179575188610896565b3d91506108ab565b5082600160a060020a036003541690604051907f127e8e4d0000000000000000000000000000000000000000000000000000000082526004356004830152602082602481865afa91821561042d57600092610a9d575b508134106101795792906040519384927f786134be0000000000000000000000000000000000000000000000000000000084526040600485015281516044850152600160a060020a036020830151166064850152606061099460408401516080608488015260c4870190610e43565b920151916043198582030160a48601526020808451928381520193019060005b818110610a6f5750505091838092600160a060020a036020979516602483015203925af190811561042d57600091610a3d575b50336000526004602052604060002080546801000000000000000081101561055357610a1891600182018155610cee565b600882939254910260020a918260000392839102169119161790556001600255600080f35b90506020813d602011610a67575b81610a5860209383610c0f565b810103126101795751816109e7565b3d9150610a4b565b82518051600160a060020a0316865260209081015181870152899750604090950194909201916001016109b4565b9091506020813d602011610ac9575b81610ab960209383610c0f565b8101031261017957519084610925565b3d9150610aac565b606460405160e560020a62461bcd02815260206004820152601f60248201527f5265656e7472616e637947756172643a207265656e7472616e742063616c6c006044820152fd5b34610179576000366003190112610179576020604051600160a060020a037f0000000000000000000000000000000000000000000000000000000000000000168152f35b3461017957600036600319011261017957610b75610d35565b6000805473ffffffffffffffffffffffffffffffffffffffff1981168255600160a060020a03167f8be0079c531659141344cd1fd0a4f28419497f9722a3daafe3b4186f6b6457e08280a3005b346101795760203660031901126101795760209060043560005260058252600160a060020a03604060002054168152f35b6040810190811067ffffffffffffffff82111761055357604052565b90601f8019910116810190811067ffffffffffffffff82111761055357604052565b60043590600160a060020a038216820361017957565b3590600160a060020a038216820361017957565b9080601f830112156101795781359167ffffffffffffffff831161055357604091825193602091610c90838084020187610c0f565b8186528285818801930285010193818511610179578301915b848310610cb95750505050505090565b8583830312610179578386918251610cd081610bf3565b610cd986610c47565b81528286013583820152815201920191610ca9565b8054821015610d065760005260206000200190600090565b7f4e487b7100000000000000000000000000000000000000000000000000000000600052603260045260246000fd5b600160a060020a03600054163303610d4957565b606460405160e560020a62461bcd02815260206004820152602060248201527f4f776e61626c653a2063616c6c6572206973206e6f7420746865206f776e65726044820152fd5b67ffffffffffffffff811161055357601f01601f191660200190565b6000198114610dbb5760010190565b7f4e487b7100000000000000000000000000000000000000000000000000000000600052601160045260246000fd5b903590601e1981360301821215610179570180359067ffffffffffffffff82116101795760200191604082023603831361017957565b9190811015610d06576040020190565b8051821015610d06576020809202010190565b919082519283825260005b848110610e6f575050826000602080949584010152601f8019910116010190565b602081830181015184830182015201610e4e565b600160a060020a031690610f01604051610e9c81610bf3565b6020938482527f5361666545524332303a206c6f772d6c6576656c2063616c6c206661696c6564858301526000808587829751910182855af13d15610fb4573d91610ee683610d90565b92610ef46040519485610c0f565b83523d868885013e610fb8565b805191821591848315610f89575b505050905015610f1c5750565b6084906040519060e560020a62461bcd0282526004820152602a60248201527f5361666545524332303a204552433230206f7065726174696f6e20646964206e60448201527f6f742073756363656564000000000000000000000000000000000000000000006064820152fd5b919381809450010312610fb057820151908115158203610fad575080388084610f0f565b80fd5b5080fd5b6060915b9192901561101c5750815115610fcc575090565b3b15610fd55790565b606460405160e560020a62461bcd02815260206004820152601d60248201527f416464726573733a2063616c6c20746f206e6f6e2d636f6e74726163740000006044820152fd5b82519091501561102f5750805190602001fd5b6110569060405191829160e560020a62461bcd028352602060048401526024830190610e43565b0390fdfea2646970667358221220c5b985a2a9af82c601227e0fd06415c04426744778ba50154e0d395cfbacb5ac64736f6c63430008110033",
  "immutableReferences": {
    "1580": [
      {
        "length": 32,
        "start": 534
      },
      {
        "length": 32,
        "start": 2872
      }
    ]
  },
  "source": "// SPDX-License-Identifier: MIT\r\npragma solidity ^0.8.17;\r\n\r\nimport {Data} from \"../libraries/Data.sol\";\r\nimport {IMetreon} from \"../interfaces/IMetreon.sol\";\r\nimport {MetreonReceiver} from \"../MetreonReceiver.sol\";\r\n\r\nimport {IERC20} from \"@openzeppelin/contracts/token/ERC20/IERC20.sol\";\r\nimport {SafeERC20} from \"@openzeppelin/contracts/token/ERC20/utils/SafeERC20.sol\";\r\nimport {ReentrancyGuard} from \"@openzeppelin/contracts/security/ReentrancyGuard.sol\";\r\n\r\ncontract Beamre is MetreonReceiver, ReentrancyGuard {\r\n    using SafeERC20 for IERC20;\r\n\r\n    IMetreon private _metreon;\r\n\r\n    mapping(address => bytes32[]) public _actions;\r\n    mapping(uint256 => address) public _contracts;\r\n\r\n    constructor(\r\n        address config_,\r\n        address metreon_\r\n    ) MetreonReceiver(config_, metreon_) {\r\n        _metreon = IMetreon(getMetreon());\r\n    }\r\n\r\n    function setContract(uint256 chainId, address contractId) external {\r\n        _contracts[chainId] = contractId;\r\n    }\r\n\r\n    function bridgeToken(\r\n        uint256 toChainId,\r\n        Data.Token[] memory tokens,\r\n        address tokenPool\r\n    ) external payable nonReentrant {\r\n        Data.OutgoingMessage memory message = Data.OutgoingMessage({\r\n            toChainId: toChainId,\r\n            receiver: _contracts[toChainId],\r\n            payload: abi.encode(_msgSender()),\r\n            tokens: tokens\r\n        });\r\n\r\n        for (uint256 index = 0; index < tokens.length; index++) {\r\n            Data.Token memory token = tokens[index];\r\n\r\n            IERC20 tokenContract = IERC20(token.tokenId);\r\n\r\n            tokenContract.safeTransferFrom(\r\n                _msgSender(),\r\n                address(this),\r\n                token.amount\r\n            );\r\n\r\n            tokenContract.safeApprove(address(_metreon), token.amount);\r\n        }\r\n\r\n        uint256 fee = _metreon.estimateFee(toChainId);\r\n\r\n        require(msg.value >= fee);\r\n\r\n        bytes32 messageId = _metreon.sendMessage{value: fee}(\r\n            message,\r\n            tokenPool\r\n        );\r\n\r\n        _actions[_msgSender()].push(messageId);\r\n    }\r\n\r\n    function _metreonReceive(\r\n        Data.IncomingMessage memory message\r\n    ) internal override {\r\n        address receiver = abi.decode(message.payload, (address));\r\n\r\n        for (uint256 index = 0; index < message.tokens.length; index++) {\r\n            Data.Token memory token = message.tokens[index];\r\n\r\n            if (token.tokenId == 0xEeeeeEeeeEeEeeEeEeEeeEEEeeeeEeeeeeeeEEeE) {\r\n                payable(receiver).transfer(token.amount);\r\n            } else {\r\n                IERC20 tokenContract = IERC20(token.tokenId);\r\n                tokenContract.safeTransfer(receiver, token.amount);\r\n            }\r\n        }\r\n    }\r\n}\r\n",
  "sourcePath": "C:\\Users\\DELL\\Documents\\metreon.xyz\\smart-contracts\\contracts\\samples\\Beamre.sol",
  "compiler": {
    "name": "solc",
    "version": "0.8.17+commit.8df45f5f.Emscripten.clang"
  },
  "schemaVersion": "3.4.11",
  "updatedAt": "2024-04-22T13:59:50.314Z",
  "devdoc": {
    "kind": "dev",
    "methods": {
      "owner()": {
        "details": "Returns the address of the current owner."
      },
      "renounceOwnership()": {
        "details": "Leaves the contract without owner. It will not be possible to call `onlyOwner` functions. Can only be called by the current owner. NOTE: Renouncing ownership will leave the contract without an owner, thereby disabling any functionality that is only available to the owner."
      },
      "transferOwnership(address)": {
        "details": "Transfers ownership of the contract to a new account (`newOwner`). Can only be called by the current owner."
      }
    },
    "version": 1
  },
  "userdoc": {
    "kind": "user",
    "methods": {},
    "version": 1
  }
}