{
  "contractName": "Metreon",
  "abi": [
    {
      "inputs": [
        {
          "internalType": "address",
          "name": "config_",
          "type": "address"
        }
      ],
      "stateMutability": "nonpayable",
      "type": "constructor"
    },
    {
      "inputs": [
        {
          "internalType": "bytes32",
          "name": "messageId",
          "type": "bytes32"
        }
      ],
      "name": "AlreadyExecuted",
      "type": "error"
    },
    {
      "inputs": [],
      "name": "InsufficientGasFee",
      "type": "error"
    },
    {
      "inputs": [],
      "name": "InvalidMessage",
      "type": "error"
    },
    {
      "inputs": [
        {
          "internalType": "uint256",
          "name": "chainId",
          "type": "uint256"
        }
      ],
      "name": "UnsupportedChain",
      "type": "error"
    },
    {
      "anonymous": false,
      "inputs": [
        {
          "indexed": false,
          "internalType": "bytes32",
          "name": "messageId",
          "type": "bytes32"
        },
        {
          "indexed": false,
          "internalType": "uint256",
          "name": "fee",
          "type": "uint256"
        },
        {
          "indexed": false,
          "internalType": "address",
          "name": "feeToken",
          "type": "address"
        },
        {
          "indexed": false,
          "internalType": "uint256",
          "name": "sequenceNumber",
          "type": "uint256"
        },
        {
          "indexed": false,
          "internalType": "uint256",
          "name": "toChainId",
          "type": "uint256"
        },
        {
          "indexed": false,
          "internalType": "address",
          "name": "sender",
          "type": "address"
        },
        {
          "indexed": false,
          "internalType": "address",
          "name": "receiver",
          "type": "address"
        },
        {
          "components": [
            {
              "internalType": "address",
              "name": "tokenId",
              "type": "address"
            },
            {
              "internalType": "uint256",
              "name": "amount",
              "type": "uint256"
            }
          ],
          "indexed": false,
          "internalType": "struct Data.Token[]",
          "name": "tokens",
          "type": "tuple[]"
        },
        {
          "indexed": false,
          "internalType": "bytes",
          "name": "payload",
          "type": "bytes"
        }
      ],
      "name": "Dispatch",
      "type": "event"
    },
    {
      "anonymous": false,
      "inputs": [
        {
          "indexed": true,
          "internalType": "address",
          "name": "previousOwner",
          "type": "address"
        },
        {
          "indexed": true,
          "internalType": "address",
          "name": "newOwner",
          "type": "address"
        }
      ],
      "name": "OwnershipTransferred",
      "type": "event"
    },
    {
      "anonymous": false,
      "inputs": [
        {
          "indexed": false,
          "internalType": "bytes32",
          "name": "messageId",
          "type": "bytes32"
        }
      ],
      "name": "PostMessage",
      "type": "event"
    },
    {
      "inputs": [],
      "name": "owner",
      "outputs": [
        {
          "internalType": "address",
          "name": "",
          "type": "address"
        }
      ],
      "stateMutability": "view",
      "type": "function"
    },
    {
      "inputs": [],
      "name": "renounceOwnership",
      "outputs": [],
      "stateMutability": "nonpayable",
      "type": "function"
    },
    {
      "inputs": [
        {
          "internalType": "address",
          "name": "newOwner",
          "type": "address"
        }
      ],
      "name": "transferOwnership",
      "outputs": [],
      "stateMutability": "nonpayable",
      "type": "function"
    },
    {
      "inputs": [
        {
          "internalType": "uint256",
          "name": "chainId",
          "type": "uint256"
        }
      ],
      "name": "isChainSupported",
      "outputs": [
        {
          "internalType": "bool",
          "name": "",
          "type": "bool"
        }
      ],
      "stateMutability": "view",
      "type": "function"
    },
    {
      "inputs": [
        {
          "internalType": "address",
          "name": "tokenId",
          "type": "address"
        }
      ],
      "name": "isTokenSupported",
      "outputs": [
        {
          "internalType": "bool",
          "name": "",
          "type": "bool"
        }
      ],
      "stateMutability": "view",
      "type": "function"
    },
    {
      "inputs": [
        {
          "internalType": "uint256",
          "name": "toChainId",
          "type": "uint256"
        }
      ],
      "name": "estimateFee",
      "outputs": [
        {
          "internalType": "uint256",
          "name": "",
          "type": "uint256"
        }
      ],
      "stateMutability": "view",
      "type": "function"
    },
    {
      "inputs": [
        {
          "components": [
            {
              "internalType": "uint256",
              "name": "toChainId",
              "type": "uint256"
            },
            {
              "internalType": "address",
              "name": "receiver",
              "type": "address"
            },
            {
              "internalType": "bytes",
              "name": "payload",
              "type": "bytes"
            },
            {
              "components": [
                {
                  "internalType": "address",
                  "name": "tokenId",
                  "type": "address"
                },
                {
                  "internalType": "uint256",
                  "name": "amount",
                  "type": "uint256"
                }
              ],
              "internalType": "struct Data.Token[]",
              "name": "tokens",
              "type": "tuple[]"
            }
          ],
          "internalType": "struct Data.OutgoingMessage",
          "name": "message",
          "type": "tuple"
        },
        {
          "internalType": "address",
          "name": "tokenPool",
          "type": "address"
        }
      ],
      "name": "sendMessage",
      "outputs": [
        {
          "internalType": "bytes32",
          "name": "",
          "type": "bytes32"
        }
      ],
      "stateMutability": "payable",
      "type": "function"
    },
    {
      "inputs": [
        {
          "internalType": "address",
          "name": "receiver",
          "type": "address"
        },
        {
          "components": [
            {
              "internalType": "bytes32",
              "name": "messageId",
              "type": "bytes32"
            },
            {
              "internalType": "uint256",
              "name": "fromChainId",
              "type": "uint256"
            },
            {
              "internalType": "address",
              "name": "sender",
              "type": "address"
            },
            {
              "internalType": "bytes",
              "name": "payload",
              "type": "bytes"
            },
            {
              "components": [
                {
                  "internalType": "address",
                  "name": "tokenId",
                  "type": "address"
                },
                {
                  "internalType": "uint256",
                  "name": "amount",
                  "type": "uint256"
                }
              ],
              "internalType": "struct Data.Token[]",
              "name": "tokens",
              "type": "tuple[]"
            }
          ],
          "internalType": "struct Data.IncomingMessage",
          "name": "message",
          "type": "tuple"
        },
        {
          "internalType": "address",
          "name": "tokenPool",
          "type": "address"
        }
      ],
      "name": "postMessage",
      "outputs": [],
      "stateMutability": "nonpayable",
      "type": "function"
    }
  ],
  "bytecode": "0x6080346100a85761120980380390601f19601f83011683019183831067ffffffffffffffff8411176100ad578084926020946040528339810103126100a85751600160a060020a0390818116908190036100a857600054600160a060020a0319903382821617600055604051933391167f8be0079c531659141344cd1fd0a4f28419497f9722a3daafe3b4186f6b6457e0600080a3600254161760025561112c90816100dd8239f35b600080fd5b7f4e487b7100000000000000000000000000000000000000000000000000000000600052604160045260246000fdfe608080604052600436101561001357600080fd5b6000907c0100000000000000000000000000000000000000000000000000000000823504908163127e8e4d14610b24575080635221c1f014610b0557806368269c5914610901578063715018a61461089a57806375151b631461086c578063786134be146101b15780638da5cb5b1461018b5763f2fde38b1461009557600080fd5b34610188576020366003190112610188576100ae610bca565b6100b6610bf4565b600160a060020a038091169081156101045760005482600160a060020a0319821617600055167f8be0079c531659141344cd1fd0a4f28419497f9722a3daafe3b4186f6b6457e0600080a380f35b60846040517f08c379a000000000000000000000000000000000000000000000000000000000815260206004820152602660248201527f4f776e61626c653a206e6577206f776e657220697320746865207a65726f206160448201527f64647265737300000000000000000000000000000000000000000000000000006064820152fd5b80fd5b5034610188578060031936011261018857600160a060020a036020915416604051908152f35b506003196040368201126108685767ffffffffffffffff6004351161086857608090600435360301126101885760243590600160a060020a03821682036107c15760015491604051926080840184811067ffffffffffffffff82111761084f5760405260043560040135845261022b602460043501610be0565b602085015267ffffffffffffffff604460043501351161084b5736600435604481013501602301121561084b5767ffffffffffffffff6004803560448101350101351161083457604051610294600480356044810135010135601f01601f191660200182610c7a565b60048035604481013501908101358083523691016024011161076757600480356044810135019081013590602401602083013783602060046044813501358135010135830101526040850152606460043501359367ffffffffffffffff85116107675736602386600435010112156107675760048581350101359061031882610c9c565b916103266040519384610c7a565b80835260208301809736602460408502836004350101011161083057906024826004350101915b60246040850282600435010101831061081057505050508160608201528051906040600160a060020a0360208301511691015191604051947feeeeeeeeeeeeeeeeeeeeeeeeeeeeeeeeeeeeeeee00000000000000000000000060208701526c0100000000000000000000000033021760408601526060850152608084015260c060a08401528051908160e0850152855b8281106107f957505080856101006101209386010152601f8019910116830161010081019260e08583030160c086015251809352019490845b8181106107ce57505050610436816024949503601f198101835282610c7a565b602081519101206020600160a060020a0360025416604051948580927ffcee45f40000000000000000000000000000000000000000000000000000000082526004356004013560048301525afa928315610539578493610795575b5082341061076b57835b6104af606460043501600435600401610f9a565b9050811015610613576104cc606460043501600435600401610f9a565b8210156105fc576104e4869136906040850201610f5a565b8051600160a060020a031673eeeeeeeeeeeeeeeeeeeeeeeeeeeeeeeeeeeeeeee810361054d575050803415610544575b818080923490600160a060020a03891690f1156105395761053490610cb4565b61049b565b6040513d86823e3d90fd5b506108fc610514565b606460208093015160405194859384927f23b872dd000000000000000000000000000000000000000000000000000000008452336004850152600160a060020a038b16602485015260448401525af180156105f1576105b1575b5061053490610cb4565b6020813d6020116105e9575b816105ca60209383610c7a565b810103126105e55751801515036105e157386105a7565b8480fd5b8580fd5b3d91506105bd565b6040513d88823e3d90fd5b60248660e060020a634e487b710281526032600452fd5b600154859083908660043560240135600160a060020a038116900361076757610646606460043501600435600401610f9a565b9094602219600435360301604460043501351215610188576004803560448101350190810135360360249091011361018857908060405193610120850190878652602086015273eeeeeeeeeeeeeeeeeeeeeeeeeeeeeeeeeeeeeeee60408601528560608601526004356004013560808601523360a0860152600160a060020a03602460043501351660c086015261012060e086015252610140830195915b81811061074c57838703610100850152602086610741877ff6dc77340ca6ebee1db8c47f6b37f6b5b573dcdab155f2f68fbdb52bbcff0f2388806107398e600480356044810135019081013590602401610ff5565b0390a1610cb4565b600155604051908152f35b909195604061075d60019289610fd0565b97019291016106e4565b8380fd5b60046040517fe6b65893000000000000000000000000000000000000000000000000000000008152fd5b9092506020813d6020116107c6575b816107b160209383610c7a565b810103126107c157519138610491565b600080fd5b3d91506107a4565b82518051600160a060020a031688526020908101518189015260409097019690920191600101610416565b8060208092840101516101008288010152016103dd565b60408060206024946108223688610f5a565b81520194019392505061034d565b8780fd5b60248360e060020a634e487b710281526041600452fd5b8280fd5b60e060020a634e487b7102600052604160045260246000fd5b5080fd5b503461018857602036600319011261018857602061089061088b610bca565b610e2e565b6040519015158152f35b50346101885780600319360112610188576108b3610bf4565b6000805473ffffffffffffffffffffffffffffffffffffffff1981168255600160a060020a03167f8be0079c531659141344cd1fd0a4f28419497f9722a3daafe3b4186f6b6457e08280a380f35b5034610188576003196060368201126108685761091c610bca565b906024359167ffffffffffffffff83116107675760a0836004019284360301126107675760443590600160a060020a03918281168091036105e55761095f610bf4565b833594858752600360205260ff604088205416610ad45790610988608488969594930185610f9a565b9050610a50575b5016803b1561084b576109dd83929183926040519485809481937f93c08ad3000000000000000000000000000000000000000000000000000000008352602060048401526024830190611016565b03925af18015610a4557610a31575b50507f98302d606350c6eac5a0aa13af4cd08f0efcd727799fac363b660272da97b9ae6020604051838152a18152600360205260408120805460ff1916600117905580f35b610a3a90610c66565b6108685781386109ec565b6040513d84823e3d90fd5b8091929394503b156105e5578560405180927f62f924fc000000000000000000000000000000000000000000000000000000008252858516600483015260406024830152818381610aa4604482018b611016565b03925af180156105f157610abd575b908593929161098f565b610acb909591939295610c66565b93909138610ab3565b602486604051907fd1d36dcd0000000000000000000000000000000000000000000000000000000082526004820152fd5b5034610188576020366003190112610188576020610890600435610d08565b82346101885760209182600319360112610868578281602481600160a060020a03600254167ffcee45f400000000000000000000000000000000000000000000000000000000825260043560048301525afa918215610bbe578092610b8e575b5050604051908152f35b9091508282813d8311610bb7575b610ba68183610c7a565b810103126101885750518280610b84565b503d610b9c565b604051903d90823e3d90fd5b60043590600160a060020a03821682036107c157565b3590600160a060020a03821682036107c157565b600160a060020a03600054163303610c0857565b60646040517f08c379a000000000000000000000000000000000000000000000000000000000815260206004820152602060248201527f4f776e61626c653a2063616c6c6572206973206e6f7420746865206f776e65726044820152fd5b67ffffffffffffffff811161084f57604052565b90601f8019910116810190811067ffffffffffffffff82111761084f57604052565b67ffffffffffffffff811161084f5760208091020190565b6000198114610cc35760010190565b60e060020a634e487b7102600052601160045260246000fd5b8051821015610cef576020809202010190565b60e060020a634e487b7102600052603260045260246000fd5b600160a060020a03600254169060405180927f816949b500000000000000000000000000000000000000000000000000000000825281600460009586935afa908115610e23578391610d8f575b50825b8151811015610d895782610d6c8284610cdc565b5114610d8057610d7b90610cb4565b610d58565b50505050600190565b50505090565b90503d8084833e610da08183610c7a565b81019060209081818403126105e15780519067ffffffffffffffff82116105e557019180601f840112156105e1578251610dd981610c9c565b93610de76040519586610c7a565b81855283808087019302820101928311610e1f578301905b828210610e10575050505038610d55565b81518152908301908301610dff565b8680fd5b6040513d85823e3d90fd5b600160a060020a039081600254169160405180937fb002249d00000000000000000000000000000000000000000000000000000000825281600460009687935afa908115610539578491610ebd575b50835b8151811015610eb65782610e948284610cdc565b511683851614610eac57610ea790610cb4565b610e80565b5050505050600190565b5050505090565b90503d8085833e610ece8183610c7a565b81019060209081818403126105e55780519067ffffffffffffffff8211610e1f57019180601f840112156105e5578251610f0781610c9c565b93610f156040519586610c7a565b81855283808087019302820101928311610830578301905b828210610f3e575050505038610e7d565b81518681168103610f56578152908301908301610f2d565b8880fd5b91908260409103126107c1576040516040810181811067ffffffffffffffff82111761084f576040526020808294610f9181610be0565b84520135910152565b903590601e19813603018212156107c1570180359067ffffffffffffffff82116107c1576020019160408202360383136107c157565b906020604092600160a060020a03610fe782610be0565b168352013560208201520190565b908060209392818452848401376000828201840152601f01601f1916010190565b9081358152602082013560208201526040600160a060020a0361103a828501610be0565b168282015236839003601e1901916060840135838112156107c15767ffffffffffffffff949081018035906020018682116107c15781360381136107c15761108d9160a0606086015260a0850191610ff5565b936080820135908112156107c15701926020843594019484116107c157828402360385136107c157816080602093839695960391015282815201929160005b8281106110da575050505090565b90919293826110eb60019287610fd0565b9501939291016110cc56fea26469706673582212200c96e72b9dd30f23b3998b4fd8d459c588a3bdeae448b1e5da2a8034431375fe64736f6c63430008110033",
  "immutableReferences": {},
  "source": "// SPDX-License-Identifier: MIT\r\npragma solidity ^0.8.17;\r\n\r\nimport {Hash} from \"./libraries/Hash.sol\";\r\nimport {Data} from \"./libraries/Data.sol\";\r\nimport {IPool} from \"./interfaces/Ipool.sol\";\r\nimport {IMetreon} from \"./interfaces/IMetreon.sol\";\r\nimport {IMessageReceiver} from \"./interfaces/IMessageReceiver.sol\";\r\nimport {IMetreonConfig} from \"./interfaces/IMetreonConfig.sol\";\r\n\r\nimport {IERC20} from \"@openzeppelin/contracts/token/ERC20/IERC20.sol\";\r\nimport {Ownable} from \"@openzeppelin/contracts/access/Ownable.sol\";\r\n\r\ncontract Metreon is IMetreon, Ownable {\r\n    uint256 private _sequence;\r\n    IMetreonConfig private _config;\r\n    mapping(bytes32 => bool) private _executed;\r\n\r\n    constructor(address config_) Ownable() {\r\n        _config = IMetreonConfig(config_);\r\n    }\r\n\r\n    function isChainSupported(uint256 chainId) external view returns (bool) {\r\n        uint256[] memory chainIds = _config.supportedChains();\r\n\r\n        for (uint256 index = 0; index < chainIds.length; index++) {\r\n            if (chainIds[index] == chainId) return true;\r\n        }\r\n\r\n        return false;\r\n    }\r\n\r\n    function isTokenSupported(address tokenId) external view returns (bool) {\r\n        address[] memory tokenIds = _config.supportedTokens();\r\n\r\n        for (uint256 index = 0; index < tokenIds.length; index++) {\r\n            if (tokenIds[index] == tokenId) return true;\r\n        }\r\n\r\n        return false;\r\n    }\r\n\r\n    function estimateFee(uint256 toChainId) external view returns (uint256) {\r\n        return _config.getFee(toChainId);\r\n    }\r\n\r\n    function sendMessage(\r\n        Data.OutgoingMessage calldata message,\r\n        address tokenPool\r\n    ) external payable returns (bytes32) {\r\n        bytes32 combinedMsgIndex = (Hash.addressToBytes32(_msgSender()) << 96) |\r\n            bytes32(_sequence);\r\n\r\n        bytes32 messageId = Hash.getHash(message, combinedMsgIndex);\r\n\r\n        uint256 estimatedFee = _config.getFee(message.toChainId);\r\n\r\n        if (msg.value < estimatedFee) revert InsufficientGasFee();\r\n\r\n        for (uint256 index = 0; index < message.tokens.length; index++) {\r\n            Data.Token memory token = message.tokens[index];\r\n\r\n            if (token.tokenId == 0xEeeeeEeeeEeEeeEeEeEeeEEEeeeeEeeeeeeeEEeE) {\r\n                payable(tokenPool).transfer(msg.value);\r\n            } else {\r\n                IERC20 tokenContract = IERC20(token.tokenId);\r\n                tokenContract.transferFrom(\r\n                    _msgSender(),\r\n                    tokenPool,\r\n                    token.amount\r\n                );\r\n            }\r\n        }\r\n\r\n        emit Dispatch(\r\n            messageId,\r\n            estimatedFee,\r\n            0xEeeeeEeeeEeEeeEeEeEeeEEEeeeeEeeeeeeeEEeE, // native coin\r\n            _sequence, // message sequence\r\n            message.toChainId,\r\n            _msgSender(),\r\n            message.receiver,\r\n            message.tokens,\r\n            message.payload\r\n        );\r\n\r\n        _sequence++;\r\n\r\n        return messageId;\r\n    }\r\n\r\n    function postMessage(\r\n        address receiver,\r\n        Data.IncomingMessage calldata message,\r\n        address tokenPool\r\n    ) external override onlyOwner {\r\n        if (_executed[message.messageId]) {\r\n            revert AlreadyExecuted(message.messageId);\r\n        }\r\n\r\n        if (message.tokens.length > 0) {\r\n            IPool pool = IPool(tokenPool);\r\n            pool.withdrawTo(receiver, message);\r\n        }\r\n\r\n        IMessageReceiver messageReceiver = IMessageReceiver(receiver);\r\n        messageReceiver.metreonReceive(message);\r\n\r\n        emit PostMessage(message.messageId);\r\n\r\n        _executed[message.messageId] = true;\r\n    }\r\n}\r\n",
  "sourcePath": "C:\\Users\\DELL\\Documents\\metreon.xyz\\smart-contracts\\contracts\\Metreon.sol",
  "compiler": {
    "name": "solc",
    "version": "0.8.17+commit.8df45f5f.Emscripten.clang"
  },
  "schemaVersion": "3.4.11",
  "updatedAt": "2024-04-17T21:32:19.748Z",
  "devdoc": {
    "kind": "dev",
    "methods": {
      "owner()": {
        "details": "Returns the address of the current owner."
      },
      "renounceOwnership()": {
        "details": "Leaves the contract without owner. It will not be possible to call `onlyOwner` functions. Can only be called by the current owner. NOTE: Renouncing ownership will leave the contract without an owner, thereby disabling any functionality that is only available to the owner."
      },
      "transferOwnership(address)": {
        "details": "Transfers ownership of the contract to a new account (`newOwner`). Can only be called by the current owner."
      }
    },
    "version": 1
  },
  "userdoc": {
    "kind": "user",
    "methods": {},
    "version": 1
  }
}