{
  "contractName": "MetreonPay",
  "abi": [
    {
      "inputs": [
        {
          "internalType": "uint256",
          "name": "amount",
          "type": "uint256"
        }
      ],
      "name": "InsufficientAmount",
      "type": "error"
    },
    {
      "inputs": [
        {
          "internalType": "address",
          "name": "payer",
          "type": "address"
        }
      ],
      "name": "InvalidPayMaster",
      "type": "error"
    },
    {
      "inputs": [],
      "name": "OverflowAmount",
      "type": "error"
    },
    {
      "anonymous": false,
      "inputs": [
        {
          "indexed": false,
          "internalType": "address",
          "name": "dapp",
          "type": "address"
        },
        {
          "indexed": false,
          "internalType": "uint256",
          "name": "amount",
          "type": "uint256"
        }
      ],
      "name": "Deposit",
      "type": "event"
    },
    {
      "anonymous": false,
      "inputs": [
        {
          "indexed": false,
          "internalType": "address",
          "name": "dapp",
          "type": "address"
        },
        {
          "indexed": false,
          "internalType": "uint256",
          "name": "amount",
          "type": "uint256"
        },
        {
          "indexed": false,
          "internalType": "bytes32",
          "name": "messageId",
          "type": "bytes32"
        }
      ],
      "name": "PayGas",
      "type": "event"
    },
    {
      "anonymous": false,
      "inputs": [
        {
          "indexed": false,
          "internalType": "address",
          "name": "dapp",
          "type": "address"
        },
        {
          "indexed": false,
          "internalType": "uint256",
          "name": "amount",
          "type": "uint256"
        }
      ],
      "name": "Withdraw",
      "type": "event"
    },
    {
      "inputs": [
        {
          "internalType": "address",
          "name": "dapp",
          "type": "address"
        }
      ],
      "name": "balanceOf",
      "outputs": [
        {
          "internalType": "uint256",
          "name": "",
          "type": "uint256"
        }
      ],
      "stateMutability": "view",
      "type": "function",
      "constant": true
    },
    {
      "inputs": [
        {
          "internalType": "address",
          "name": "dapp",
          "type": "address"
        }
      ],
      "name": "deposit",
      "outputs": [],
      "stateMutability": "payable",
      "type": "function",
      "payable": true
    },
    {
      "inputs": [
        {
          "internalType": "address",
          "name": "dapp",
          "type": "address"
        },
        {
          "internalType": "uint256",
          "name": "amount",
          "type": "uint256"
        }
      ],
      "name": "withdraw",
      "outputs": [],
      "stateMutability": "nonpayable",
      "type": "function"
    },
    {
      "inputs": [
        {
          "internalType": "address",
          "name": "dapp",
          "type": "address"
        },
        {
          "internalType": "uint256",
          "name": "amount",
          "type": "uint256"
        },
        {
          "internalType": "bytes32",
          "name": "messageId",
          "type": "bytes32"
        }
      ],
      "name": "payGas",
      "outputs": [],
      "stateMutability": "nonpayable",
      "type": "function"
    }
  ],
  "bytecode": "0x608080604052346100235768056bc75e2d631000006001556105b790816100298239f35b600080fdfe6080604081815260048036101561001557600080fd5b6000927c0100000000000000000000000000000000000000000000000000000000843504908163120cad45146103f15750806370a08231146103b7578063f340fa01146102565763f3fef3a31461006b57600080fd5b346102525781600319360112610252576100836104ad565b60243591600160a060020a038083168551927f5c72a569000000000000000000000000000000000000000000000000000000009081855260209485818381875afa80156102485785918b9161022b575b501633036101fb5782895288855286888a2054106101cc57938291899582959487528683528987206101068a8254610574565b905589518094819382525afa9283156101c25784938493849389938593610193575b505083918315610189575b1690f11561017d579151600160a060020a03909216825260208201527f884edad9ce6fa2440d8a54cc123490eb96d2768479d49ff9c7366125a94243649080604081015b0390a180f35b505051903d90823e3d90fd5b6108fc9250610133565b6101b3929350803d106101bb575b6101ab8183610504565b810190610555565b903880610128565b503d6101a1565b87513d86823e3d90fd5b602490878951917f77b8dde3000000000000000000000000000000000000000000000000000000008352820152fd5b6024908851907fab26abf00000000000000000000000000000000000000000000000000000000082523390820152fd5b6102429150873d89116101bb576101ab8183610504565b386100d3565b89513d8c823e3d90fd5b8280fd5b50906020806003193601126103b35761026d6104ad565b92600160a060020a03908185169182875286845261028f8588205434906104c8565b6001541061038b5784517f5c72a56900000000000000000000000000000000000000000000000000000000815284818481875afa908115610381578891610364575b50163303610334575091847fe1fffcc4923d04b559f4d29a8bfc6cda04eb5b0d3c460751c2402c5c5cc9109c9492610177948252528085206103143482546104c8565b905551600160a060020a0390911681523460208201529081906040820190565b6024908451907fab26abf00000000000000000000000000000000000000000000000000000000082523390820152fd5b61037b9150853d87116101bb576101ab8183610504565b386102d1565b86513d8a823e3d90fd5b5083517f4da6b0c1000000000000000000000000000000000000000000000000000000008152fd5b8380fd5b5050346103ed5760203660031901126103ed5780602092600160a060020a036103de6104ad565b16815280845220549051908152f35b5080fd5b84939150346103b35760603660031901126103b35761040e6104ad565b90600160a060020a036024359216938486528560205282848720541061048157857ffea9da21606e4205832bcfc5d68aac8e4799bc3dedadc463e01cbe2510e52e6d60608787878286528560205281862061046a828254610574565b90558151928352602083015260443590820152a180f35b916024927f77b8dde3000000000000000000000000000000000000000000000000000000008352820152fd5b60043590600160a060020a03821682036104c357565b600080fd5b919082018092116104d557565b7f4e487b7100000000000000000000000000000000000000000000000000000000600052601160045260246000fd5b90601f8019910116810190811067ffffffffffffffff82111761052657604052565b7f4e487b7100000000000000000000000000000000000000000000000000000000600052604160045260246000fd5b908160209103126104c35751600160a060020a03811681036104c35790565b919082039182116104d55756fea2646970667358221220eb91aa000698a61ecd57aef90a02f677e5a6eb3a7fa073b3c8af730c46ceb80164736f6c63430008110033",
  "immutableReferences": {},
  "source": "// SPDX-License-Identifier: MIT\r\npragma solidity ^0.8.17;\r\n\r\nimport {Data} from \"../libraries/Data.sol\";\r\nimport {IMetreonPay} from \"../interfaces/IMetreonPay.sol\";\r\nimport {IMessageReceiver} from \"../interfaces/IMessageReceiver.sol\";\r\n\r\nimport {Context} from \"@openzeppelin/contracts/utils/Context.sol\";\r\n\r\ncontract MetreonPay is IMetreonPay, Context {\r\n    mapping(address => uint256) private _balances;\r\n    uint256 private MAX_BALANCE = 100_000_000_000_000_000_000;\r\n\r\n    function balanceOf(address dapp) public view override returns (uint256) {\r\n        return _balances[dapp];\r\n    }\r\n\r\n    function deposit(address dapp) external payable override {\r\n        uint256 balance = balanceOf(dapp);\r\n\r\n        if ((balance + msg.value) > MAX_BALANCE) revert OverflowAmount();\r\n\r\n        IMessageReceiver receiver = IMessageReceiver(dapp);\r\n\r\n        if (_msgSender() != receiver.metreonPayMaster())\r\n            revert InvalidPayMaster(_msgSender());\r\n\r\n        uint256 amount = msg.value;\r\n\r\n        _balances[dapp] += amount;\r\n\r\n        emit Deposit(dapp, amount);\r\n    }\r\n\r\n    function withdraw(address dapp, uint256 amount) external override {\r\n        IMessageReceiver receiver = IMessageReceiver(dapp);\r\n\r\n        if (_msgSender() != receiver.metreonPayMaster())\r\n            revert InvalidPayMaster(_msgSender());\r\n\r\n        if (_balances[dapp] < amount) revert InsufficientAmount(amount);\r\n\r\n        _balances[dapp] -= amount;\r\n\r\n        // transfer to metreonPayMaster\r\n        payable(receiver.metreonPayMaster()).transfer(amount);\r\n\r\n        emit Withdraw(dapp, amount);\r\n    }\r\n\r\n    function payGas(\r\n        address dapp,\r\n        uint256 amount,\r\n        bytes32 messageId\r\n    ) external override {\r\n        if (_balances[dapp] < amount) revert InsufficientAmount(amount);\r\n\r\n        _balances[dapp] -= amount;\r\n\r\n        emit PayGas(dapp, amount, messageId);\r\n    }\r\n}\r\n",
  "sourcePath": "C:\\Users\\DELL\\Documents\\metreon.hack.areon\\smart-contracts\\contracts\\paymaster\\MetreonPay.sol",
  "compiler": {
    "name": "solc",
    "version": "0.8.17+commit.8df45f5f.Emscripten.clang"
  },
  "schemaVersion": "3.4.11",
  "updatedAt": "2024-01-27T01:04:53.338Z",
  "networkType": "ethereum",
  "devdoc": {
    "kind": "dev",
    "methods": {},
    "version": 1
  },
  "userdoc": {
    "kind": "user",
    "methods": {},
    "version": 1
  }
}