{
  "contractName": "Metreon",
  "abi": [
    {
      "inputs": [
        {
          "internalType": "address",
          "name": "config_",
          "type": "address"
        }
      ],
      "stateMutability": "nonpayable",
      "type": "constructor"
    },
    {
      "inputs": [
        {
          "internalType": "bytes32",
          "name": "messageId",
          "type": "bytes32"
        }
      ],
      "name": "AlreadyExecuted",
      "type": "error"
    },
    {
      "inputs": [],
      "name": "InsufficientGasFee",
      "type": "error"
    },
    {
      "inputs": [],
      "name": "InvalidMessage",
      "type": "error"
    },
    {
      "inputs": [
        {
          "internalType": "uint256",
          "name": "chainId",
          "type": "uint256"
        }
      ],
      "name": "UnsupportedChain",
      "type": "error"
    },
    {
      "anonymous": false,
      "inputs": [
        {
          "indexed": false,
          "internalType": "bytes32",
          "name": "messageId",
          "type": "bytes32"
        },
        {
          "indexed": false,
          "internalType": "uint256",
          "name": "fee",
          "type": "uint256"
        },
        {
          "indexed": false,
          "internalType": "address",
          "name": "feeToken",
          "type": "address"
        },
        {
          "indexed": false,
          "internalType": "uint256",
          "name": "sequenceNumber",
          "type": "uint256"
        },
        {
          "indexed": false,
          "internalType": "uint256",
          "name": "toChainId",
          "type": "uint256"
        },
        {
          "indexed": false,
          "internalType": "address",
          "name": "sender",
          "type": "address"
        },
        {
          "indexed": false,
          "internalType": "address",
          "name": "receiver",
          "type": "address"
        },
        {
          "components": [
            {
              "internalType": "address",
              "name": "tokenId",
              "type": "address"
            },
            {
              "internalType": "uint256",
              "name": "amount",
              "type": "uint256"
            }
          ],
          "indexed": false,
          "internalType": "struct Data.Token[]",
          "name": "tokens",
          "type": "tuple[]"
        },
        {
          "indexed": false,
          "internalType": "bytes",
          "name": "payload",
          "type": "bytes"
        }
      ],
      "name": "Dispatch",
      "type": "event"
    },
    {
      "anonymous": false,
      "inputs": [
        {
          "indexed": true,
          "internalType": "address",
          "name": "previousOwner",
          "type": "address"
        },
        {
          "indexed": true,
          "internalType": "address",
          "name": "newOwner",
          "type": "address"
        }
      ],
      "name": "OwnershipTransferred",
      "type": "event"
    },
    {
      "anonymous": false,
      "inputs": [
        {
          "indexed": false,
          "internalType": "bytes32",
          "name": "messageId",
          "type": "bytes32"
        }
      ],
      "name": "PostMessage",
      "type": "event"
    },
    {
      "inputs": [],
      "name": "owner",
      "outputs": [
        {
          "internalType": "address",
          "name": "",
          "type": "address"
        }
      ],
      "stateMutability": "view",
      "type": "function",
      "constant": true
    },
    {
      "inputs": [],
      "name": "renounceOwnership",
      "outputs": [],
      "stateMutability": "nonpayable",
      "type": "function"
    },
    {
      "inputs": [
        {
          "internalType": "address",
          "name": "newOwner",
          "type": "address"
        }
      ],
      "name": "transferOwnership",
      "outputs": [],
      "stateMutability": "nonpayable",
      "type": "function"
    },
    {
      "inputs": [
        {
          "internalType": "uint256",
          "name": "chainId",
          "type": "uint256"
        }
      ],
      "name": "isChainSupported",
      "outputs": [
        {
          "internalType": "bool",
          "name": "",
          "type": "bool"
        }
      ],
      "stateMutability": "view",
      "type": "function",
      "constant": true
    },
    {
      "inputs": [
        {
          "internalType": "address",
          "name": "tokenId",
          "type": "address"
        }
      ],
      "name": "isTokenSupported",
      "outputs": [
        {
          "internalType": "bool",
          "name": "",
          "type": "bool"
        }
      ],
      "stateMutability": "view",
      "type": "function",
      "constant": true
    },
    {
      "inputs": [
        {
          "internalType": "uint256",
          "name": "toChainId",
          "type": "uint256"
        }
      ],
      "name": "estimateFee",
      "outputs": [
        {
          "internalType": "uint256",
          "name": "",
          "type": "uint256"
        }
      ],
      "stateMutability": "view",
      "type": "function",
      "constant": true
    },
    {
      "inputs": [
        {
          "components": [
            {
              "internalType": "uint256",
              "name": "toChainId",
              "type": "uint256"
            },
            {
              "internalType": "address",
              "name": "receiver",
              "type": "address"
            },
            {
              "internalType": "bytes",
              "name": "payload",
              "type": "bytes"
            },
            {
              "components": [
                {
                  "internalType": "address",
                  "name": "tokenId",
                  "type": "address"
                },
                {
                  "internalType": "uint256",
                  "name": "amount",
                  "type": "uint256"
                }
              ],
              "internalType": "struct Data.Token[]",
              "name": "tokens",
              "type": "tuple[]"
            }
          ],
          "internalType": "struct Data.OutgoingMessage",
          "name": "message",
          "type": "tuple"
        },
        {
          "internalType": "address",
          "name": "tokenPool",
          "type": "address"
        }
      ],
      "name": "sendMessage",
      "outputs": [
        {
          "internalType": "bytes32",
          "name": "",
          "type": "bytes32"
        }
      ],
      "stateMutability": "payable",
      "type": "function",
      "payable": true
    },
    {
      "inputs": [
        {
          "internalType": "address",
          "name": "receiver",
          "type": "address"
        },
        {
          "components": [
            {
              "internalType": "bytes32",
              "name": "messageId",
              "type": "bytes32"
            },
            {
              "internalType": "uint256",
              "name": "fromChainId",
              "type": "uint256"
            },
            {
              "internalType": "address",
              "name": "sender",
              "type": "address"
            },
            {
              "internalType": "bytes",
              "name": "payload",
              "type": "bytes"
            },
            {
              "components": [
                {
                  "internalType": "address",
                  "name": "tokenId",
                  "type": "address"
                },
                {
                  "internalType": "uint256",
                  "name": "amount",
                  "type": "uint256"
                }
              ],
              "internalType": "struct Data.Token[]",
              "name": "tokens",
              "type": "tuple[]"
            }
          ],
          "internalType": "struct Data.IncomingMessage",
          "name": "message",
          "type": "tuple"
        },
        {
          "internalType": "address",
          "name": "tokenPool",
          "type": "address"
        }
      ],
      "name": "postMessage",
      "outputs": [],
      "stateMutability": "nonpayable",
      "type": "function"
    }
  ],
  "bytecode": "0x6080346100ac5761140d80380390601f19601f83011683019183831067ffffffffffffffff8411176100b1578084926020946040528339810103126100ac5751600160a060020a0390818116908190036100ac57600054600160a060020a0319903382821617600055604051933391167f8be0079c531659141344cd1fd0a4f28419497f9722a3daafe3b4186f6b6457e0600080a360018055600354161760035561132c90816100e18239f35b600080fd5b7f4e487b7100000000000000000000000000000000000000000000000000000000600052604160045260246000fdfe608080604052600436101561001357600080fd5b6000907c0100000000000000000000000000000000000000000000000000000000823504908163127e8e4d14610c3d575080635221c1f014610c1e57806368269c5914610a0b578063715018a6146109a457806375151b6314610976578063786134be1461019a5780638da5cb5b146101745763f2fde38b1461009557600080fd5b34610171576020366003190112610171576100ae610ce3565b6100b6610d0d565b600160a060020a038091169081156101045760005482600160a060020a0319821617600055167f8be0079c531659141344cd1fd0a4f28419497f9722a3daafe3b4186f6b6457e0600080a380f35b608460405160e560020a62461bcd02815260206004820152602660248201527f4f776e61626c653a206e6577206f776e657220697320746865207a65726f206160448201527f64647265737300000000000000000000000000000000000000000000000000006064820152fd5b80fd5b5034610171578060031936011261017157600160a060020a036020915416604051908152f35b506003196040368201126108685767ffffffffffffffff6004351161086857608090600435360301126101715760243590600160a060020a03821682036108c05760026001541461092f5760026001556002546040516080810181811067ffffffffffffffff8211176106cc57604052600435600401358152610221602460043501610cf9565b602082015267ffffffffffffffff604460043501351161092b5736600435604481013501602301121561092b5761026260048035604481013501013561105c565b61026f6040519182610d7c565b60048035604481013501908101358083523691016024011161092757600480356044810135019081013590602401602083013783602060046044813501358135010135830101526040820152606460043501359067ffffffffffffffff8211610927573660238360043501011215610927576102f16004838135010135610d9e565b906102ff6040519283610d7c565b600480358401908101358084526020840194918591366040909102909101602401116109235760248260049795969497350101905b600480358401908101356040020160240182106108fb5750505082606085015260206103cb8551956040600160a060020a038483015116910151906040519788967feeeeeeeeeeeeeeeeeeeeeeeeeeeeeeeeeeeeeeee000000000000000000000000868901526c0100000000000000000000000033021760408801526060870152608086015260c060a086015260e08501906111d6565b838103601f190160c0850152935180855291930190855b8181106108cd5750506103fe925003601f198101835282610d7c565b602081519101209160246020600160a060020a0360035416604051928380927ffcee45f40000000000000000000000000000000000000000000000000000000082526004356004013560048301525afa908115610505578391610896575b5080341061086c57825b61047a6064600435016004356004016110b8565b90508110156106fc576104976064600435016004356004016110b8565b8210156106e5576104ae9036906040840201611078565b8051600160a060020a03169073eeeeeeeeeeeeeeeeeeeeeeeeeeeeeeeeeeeeeeee820361051957505083803415610510575b818080923490600160a060020a03891690f1156105055761050090610db6565b610466565b6040513d85823e3d90fd5b506108fc6104e0565b6020015190604051917f23b872dd000000000000000000000000000000000000000000000000000000006020840152336024840152600160a060020a03861660448401526064830152606482528160a081011067ffffffffffffffff60a0840111176106cc5760a0820160e083011067ffffffffffffffff60e0840111176106cc578160e06106119301604052602060a08201527f5361666545524332303a206c6f772d6c6576656c2063616c6c206661696c656460c0820152868082516020840182865af13d156106c25760a03d926105f28461105c565b936106006040519586610d7c565b84523d8a602086013e5b0192611134565b805190811591821561069b575b50501561062e5761050090610db6565b608460405160e560020a62461bcd02815260206004820152602a60248201527f5361666545524332303a204552433230206f7065726174696f6e20646964206e60448201527f6f742073756363656564000000000000000000000000000000000000000000006064820152fd5b81925090602091810103126106be576020015180151581036106be57388061061e565b8480fd5b60a060609261060a565b60e060020a634e487b7102600052604160045260246000fd5b60248560e060020a634e487b710281526032600452fd5b5060025484906004356024013585600160a060020a03821682036101715761072e6064600435016004356004016110b8565b9190956022196004353603016044600435013512156108685767ffffffffffffffff600480356044810135010135116108685760048035604481013501908101353603602490910113610868579180919260405194600160a060020a0361012091828801938a8952602089015273eeeeeeeeeeeeeeeeeeeeeeeeeeeeeeeeeeeeeeee60408901528860608901526004356004013560808901523360a08901521660c087015260e086015252610140830195915b81811061084d5783870361010085015260208661083e877ff6dc77340ca6ebee1db8c47f6b37f6b5b573dcdab155f2f68fbdb52bbcff0f2388806108368e600480356044810135019081013590602401611113565b0390a1610db6565b60025560018055604051908152f35b909195604061085e600192896110ee565b97019291016107e1565b5080fd5b60046040517fe6b65893000000000000000000000000000000000000000000000000000000008152fd5b90506020813d6020116108c5575b816108b160209383610d7c565b810103126108c057513861045c565b600080fd5b3d91506108a4565b84518051600160a060020a0316845260209081015181850152909401938593506040909201916001016103e2565b6040602060249261091199969897993686611078565b81520192019190509593949295610334565b8680fd5b8380fd5b8280fd5b606460405160e560020a62461bcd02815260206004820152601f60248201527f5265656e7472616e637947756172643a207265656e7472616e742063616c6c006044820152fd5b503461017157602036600319011261017157602061099a610995610ce3565b610f21565b6040519015158152f35b50346101715780600319360112610171576109bd610d0d565b6000805473ffffffffffffffffffffffffffffffffffffffff1981168255600160a060020a03167f8be0079c531659141344cd1fd0a4f28419497f9722a3daafe3b4186f6b6457e08280a380f35b50346101715760031960603682011261086857610a26610ce3565b906024359167ffffffffffffffff83116109275760a0836004019284360301126109275760443590600160a060020a0391828116809103610be957610a69610d0d565b833594858752600460205260ff604088205416610bed5790610a926084889695949301856110b8565b9050610b5a575b5016803b1561092b57610ae783929183926040519485809481937f93c08ad3000000000000000000000000000000000000000000000000000000008352602060048401526024830190611216565b03925af18015610b4f57610b3b575b50507f98302d606350c6eac5a0aa13af4cd08f0efcd727799fac363b660272da97b9ae6020604051838152a18152600460205260408120805460ff1916600117905580f35b610b4490610d68565b610868578138610af6565b6040513d84823e3d90fd5b8091929394503b15610be9578560405180927f62f924fc000000000000000000000000000000000000000000000000000000008252858516600483015260406024830152818381610bae604482018b611216565b03925af18015610bde57610bc7575b9085939291610a99565b610bd5909591939295610d68565b93909138610bbd565b6040513d88823e3d90fd5b8580fd5b602486604051907fd1d36dcd0000000000000000000000000000000000000000000000000000000082526004820152fd5b503461017157602036600319011261017157602061099a600435610e0a565b82346101715760209182600319360112610868578281602481600160a060020a03600354167ffcee45f400000000000000000000000000000000000000000000000000000000825260043560048301525afa918215610cd7578092610ca7575b5050604051908152f35b9091508282813d8311610cd0575b610cbf8183610d7c565b810103126101715750518280610c9d565b503d610cb5565b604051903d90823e3d90fd5b60043590600160a060020a03821682036108c057565b3590600160a060020a03821682036108c057565b600160a060020a03600054163303610d2157565b606460405160e560020a62461bcd02815260206004820152602060248201527f4f776e61626c653a2063616c6c6572206973206e6f7420746865206f776e65726044820152fd5b67ffffffffffffffff81116106cc57604052565b90601f8019910116810190811067ffffffffffffffff8211176106cc57604052565b67ffffffffffffffff81116106cc5760208091020190565b6000198114610dc55760010190565b60e060020a634e487b7102600052601160045260246000fd5b8051821015610df1576020809202010190565b60e060020a634e487b7102600052603260045260246000fd5b600160a060020a03600354169060405180927f816949b500000000000000000000000000000000000000000000000000000000825281600460009586935afa908115610505578391610e91575b50825b8151811015610e8b5782610e6e8284610dde565b5114610e8257610e7d90610db6565b610e5a565b50505050600190565b50505090565b90503d8084833e610ea28183610d7c565b81019060209081818403126106be5780519067ffffffffffffffff8211610be957019180601f840112156106be578251610edb81610d9e565b93610ee96040519586610d7c565b81855283808087019302820101928311610923578301905b828210610f12575050505038610e57565b81518152908301908301610f01565b600160a060020a039081600354169160405180937fb002249d00000000000000000000000000000000000000000000000000000000825281600460009687935afa908115611051578491610fb0575b50835b8151811015610fa95782610f878284610dde565b511683851614610f9f57610f9a90610db6565b610f73565b5050505050600190565b5050505090565b90503d8085833e610fc18183610d7c565b8101906020908181840312610be95780519067ffffffffffffffff821161092357019180601f84011215610be9578251610ffa81610d9e565b936110086040519586610d7c565b8185528380808701930282010192831161104d578301905b828210611031575050505038610f70565b81518681168103611049578152908301908301611020565b8880fd5b8780fd5b6040513d86823e3d90fd5b67ffffffffffffffff81116106cc57601f01601f191660200190565b91908260409103126108c0576040516040810181811067ffffffffffffffff8211176106cc5760405260208082946110af81610cf9565b84520135910152565b903590601e19813603018212156108c0570180359067ffffffffffffffff82116108c0576020019160408202360383136108c057565b906020604092600160a060020a0361110582610cf9565b168352013560208201520190565b908060209392818452848401376000828201840152601f01601f1916010190565b919290156111985750815115611148575090565b3b156111515790565b606460405160e560020a62461bcd02815260206004820152601d60248201527f416464726573733a2063616c6c20746f206e6f6e2d636f6e74726163740000006044820152fd5b8251909150156111ab5750805190602001fd5b6111d29060405191829160e560020a62461bcd0283526020600484015260248301906111d6565b0390fd5b919082519283825260005b848110611202575050826000602080949584010152601f8019910116010190565b6020818301810151848301820152016111e1565b9081358152602082013560208201526040600160a060020a0361123a828501610cf9565b168282015236839003601e1901916060840135838112156108c05767ffffffffffffffff949081018035906020018682116108c05781360381136108c05761128d9160a0606086015260a0850191611113565b936080820135908112156108c05701926020843594019484116108c057828402360385136108c057816080602093839695960391015282815201929160005b8281106112da575050505090565b90919293826112eb600192876110ee565b9501939291016112cc56fea2646970667358221220ba419e65f9083dbdd2b05b002b545b3ed2fcfa3971695accb37356233ac6463364736f6c63430008110033",
  "immutableReferences": {},
  "source": "// SPDX-License-Identifier: MIT\r\npragma solidity ^0.8.17;\r\n\r\nimport {Hash} from \"./libraries/Hash.sol\";\r\nimport {Data} from \"./libraries/Data.sol\";\r\nimport {IPool} from \"./interfaces/Ipool.sol\";\r\nimport {IMetreon} from \"./interfaces/IMetreon.sol\";\r\nimport {IMessageReceiver} from \"./interfaces/IMessageReceiver.sol\";\r\nimport {IMetreonConfig} from \"./interfaces/IMetreonConfig.sol\";\r\n\r\nimport {Ownable} from \"@openzeppelin/contracts/access/Ownable.sol\";\r\nimport {IERC20} from \"@openzeppelin/contracts/token/ERC20/IERC20.sol\";\r\nimport {SafeERC20} from \"@openzeppelin/contracts/token/ERC20/utils/SafeERC20.sol\";\r\nimport {ReentrancyGuard} from \"@openzeppelin/contracts/security/ReentrancyGuard.sol\";\r\n\r\ncontract Metreon is IMetreon, Ownable, ReentrancyGuard {\r\n    using SafeERC20 for IERC20;\r\n\r\n    uint256 private _sequence;\r\n    IMetreonConfig private _config;\r\n    mapping(bytes32 => bool) private _executed;\r\n\r\n    constructor(address config_) Ownable() {\r\n        _config = IMetreonConfig(config_);\r\n    }\r\n\r\n    function isChainSupported(uint256 chainId) external view returns (bool) {\r\n        uint256[] memory chainIds = _config.supportedChains();\r\n\r\n        for (uint256 index = 0; index < chainIds.length; index++) {\r\n            if (chainIds[index] == chainId) return true;\r\n        }\r\n\r\n        return false;\r\n    }\r\n\r\n    function isTokenSupported(address tokenId) external view returns (bool) {\r\n        address[] memory tokenIds = _config.supportedTokens();\r\n\r\n        for (uint256 index = 0; index < tokenIds.length; index++) {\r\n            if (tokenIds[index] == tokenId) return true;\r\n        }\r\n\r\n        return false;\r\n    }\r\n\r\n    function estimateFee(uint256 toChainId) external view returns (uint256) {\r\n        return _config.getFee(toChainId);\r\n    }\r\n\r\n    function sendMessage(\r\n        Data.OutgoingMessage calldata message,\r\n        address tokenPool\r\n    ) external payable nonReentrant returns (bytes32) {\r\n        bytes32 combinedMsgIndex = (Hash.addressToBytes32(_msgSender()) << 96) |\r\n            bytes32(_sequence);\r\n\r\n        bytes32 messageId = Hash.getHash(message, combinedMsgIndex);\r\n\r\n        uint256 estimatedFee = _config.getFee(message.toChainId);\r\n\r\n        if (msg.value < estimatedFee) revert InsufficientGasFee();\r\n\r\n        for (uint256 index = 0; index < message.tokens.length; index++) {\r\n            Data.Token memory token = message.tokens[index];\r\n\r\n            if (token.tokenId == 0xEeeeeEeeeEeEeeEeEeEeeEEEeeeeEeeeeeeeEEeE) {\r\n                payable(tokenPool).transfer(msg.value);\r\n            } else {\r\n                IERC20 tokenContract = IERC20(token.tokenId);\r\n                tokenContract.safeTransferFrom(\r\n                    _msgSender(),\r\n                    tokenPool,\r\n                    token.amount\r\n                );\r\n            }\r\n        }\r\n\r\n        emit Dispatch(\r\n            messageId,\r\n            estimatedFee,\r\n            0xEeeeeEeeeEeEeeEeEeEeeEEEeeeeEeeeeeeeEEeE, // native coin\r\n            _sequence, // message sequence\r\n            message.toChainId,\r\n            _msgSender(),\r\n            message.receiver,\r\n            message.tokens,\r\n            message.payload\r\n        );\r\n\r\n        _sequence++;\r\n\r\n        return messageId;\r\n    }\r\n\r\n    function postMessage(\r\n        address receiver,\r\n        Data.IncomingMessage calldata message,\r\n        address tokenPool\r\n    ) external override onlyOwner {\r\n        if (_executed[message.messageId]) {\r\n            revert AlreadyExecuted(message.messageId);\r\n        }\r\n\r\n        if (message.tokens.length > 0) {\r\n            IPool pool = IPool(tokenPool);\r\n            pool.withdrawTo(receiver, message);\r\n        }\r\n\r\n        IMessageReceiver messageReceiver = IMessageReceiver(receiver);\r\n        messageReceiver.metreonReceive(message);\r\n\r\n        emit PostMessage(message.messageId);\r\n\r\n        _executed[message.messageId] = true;\r\n    }\r\n}\r\n",
  "sourcePath": "C:\\Users\\DELL\\Documents\\metreon.xyz\\smart-contracts\\contracts\\Metreon.sol",
  "compiler": {
    "name": "solc",
    "version": "0.8.17+commit.8df45f5f.Emscripten.clang"
  },
  "schemaVersion": "3.4.11",
  "updatedAt": "2024-04-22T02:52:47.961Z",
  "networkType": "ethereum",
  "devdoc": {
    "kind": "dev",
    "methods": {
      "owner()": {
        "details": "Returns the address of the current owner."
      },
      "renounceOwnership()": {
        "details": "Leaves the contract without owner. It will not be possible to call `onlyOwner` functions. Can only be called by the current owner. NOTE: Renouncing ownership will leave the contract without an owner, thereby disabling any functionality that is only available to the owner."
      },
      "transferOwnership(address)": {
        "details": "Transfers ownership of the contract to a new account (`newOwner`). Can only be called by the current owner."
      }
    },
    "version": 1
  },
  "userdoc": {
    "kind": "user",
    "methods": {},
    "version": 1
  }
}