{
  "contractName": "MetreonConfig",
  "abi": [
    {
      "inputs": [],
      "stateMutability": "nonpayable",
      "type": "constructor"
    },
    {
      "inputs": [
        {
          "internalType": "uint256",
          "name": "amount",
          "type": "uint256"
        }
      ],
      "name": "InvalidAmount",
      "type": "error"
    },
    {
      "inputs": [
        {
          "internalType": "uint256",
          "name": "chainId",
          "type": "uint256"
        }
      ],
      "name": "InvalidChainId",
      "type": "error"
    },
    {
      "anonymous": false,
      "inputs": [
        {
          "indexed": true,
          "internalType": "address",
          "name": "previousOwner",
          "type": "address"
        },
        {
          "indexed": true,
          "internalType": "address",
          "name": "newOwner",
          "type": "address"
        }
      ],
      "name": "OwnershipTransferred",
      "type": "event"
    },
    {
      "anonymous": false,
      "inputs": [
        {
          "indexed": false,
          "internalType": "uint256",
          "name": "chainId",
          "type": "uint256"
        },
        {
          "indexed": false,
          "internalType": "address",
          "name": "tokenId",
          "type": "address"
        },
        {
          "indexed": false,
          "internalType": "address",
          "name": "chainTokenId",
          "type": "address"
        }
      ],
      "name": "SetChainTokenId",
      "type": "event"
    },
    {
      "anonymous": false,
      "inputs": [
        {
          "indexed": false,
          "internalType": "uint256",
          "name": "toChainId",
          "type": "uint256"
        },
        {
          "indexed": false,
          "internalType": "uint256",
          "name": "amount",
          "type": "uint256"
        }
      ],
      "name": "SetFee",
      "type": "event"
    },
    {
      "anonymous": false,
      "inputs": [
        {
          "indexed": false,
          "internalType": "uint256[]",
          "name": "chains",
          "type": "uint256[]"
        }
      ],
      "name": "SupportedChains",
      "type": "event"
    },
    {
      "anonymous": false,
      "inputs": [
        {
          "indexed": false,
          "internalType": "address[]",
          "name": "chains",
          "type": "address[]"
        }
      ],
      "name": "SupportedTokens",
      "type": "event"
    },
    {
      "inputs": [],
      "name": "owner",
      "outputs": [
        {
          "internalType": "address",
          "name": "",
          "type": "address"
        }
      ],
      "stateMutability": "view",
      "type": "function",
      "constant": true
    },
    {
      "inputs": [],
      "name": "renounceOwnership",
      "outputs": [],
      "stateMutability": "nonpayable",
      "type": "function"
    },
    {
      "inputs": [
        {
          "internalType": "address",
          "name": "newOwner",
          "type": "address"
        }
      ],
      "name": "transferOwnership",
      "outputs": [],
      "stateMutability": "nonpayable",
      "type": "function"
    },
    {
      "inputs": [
        {
          "internalType": "uint256",
          "name": "chainId",
          "type": "uint256"
        },
        {
          "internalType": "address",
          "name": "tokenId",
          "type": "address"
        }
      ],
      "name": "getChainTokenId",
      "outputs": [
        {
          "internalType": "address",
          "name": "",
          "type": "address"
        }
      ],
      "stateMutability": "view",
      "type": "function",
      "constant": true
    },
    {
      "inputs": [
        {
          "internalType": "uint256",
          "name": "chainId",
          "type": "uint256"
        },
        {
          "internalType": "address",
          "name": "tokenId",
          "type": "address"
        },
        {
          "internalType": "address",
          "name": "chainTokenId",
          "type": "address"
        }
      ],
      "name": "setChainTokenId",
      "outputs": [],
      "stateMutability": "nonpayable",
      "type": "function"
    },
    {
      "inputs": [
        {
          "internalType": "uint256",
          "name": "toChainId",
          "type": "uint256"
        }
      ],
      "name": "getFee",
      "outputs": [
        {
          "internalType": "uint256",
          "name": "",
          "type": "uint256"
        }
      ],
      "stateMutability": "view",
      "type": "function",
      "constant": true
    },
    {
      "inputs": [
        {
          "internalType": "uint256",
          "name": "toChainId",
          "type": "uint256"
        },
        {
          "internalType": "uint256",
          "name": "amount",
          "type": "uint256"
        }
      ],
      "name": "setFee",
      "outputs": [],
      "stateMutability": "nonpayable",
      "type": "function"
    },
    {
      "inputs": [],
      "name": "supportedChains",
      "outputs": [
        {
          "internalType": "uint256[]",
          "name": "",
          "type": "uint256[]"
        }
      ],
      "stateMutability": "view",
      "type": "function",
      "constant": true
    },
    {
      "inputs": [
        {
          "internalType": "uint256[]",
          "name": "chains",
          "type": "uint256[]"
        }
      ],
      "name": "updateSupportedChains",
      "outputs": [],
      "stateMutability": "nonpayable",
      "type": "function"
    },
    {
      "inputs": [],
      "name": "supportedTokens",
      "outputs": [
        {
          "internalType": "address[]",
          "name": "",
          "type": "address[]"
        }
      ],
      "stateMutability": "view",
      "type": "function",
      "constant": true
    },
    {
      "inputs": [
        {
          "internalType": "address[]",
          "name": "tokens",
          "type": "address[]"
        }
      ],
      "name": "updateSupportedTokens",
      "outputs": [],
      "stateMutability": "nonpayable",
      "type": "function"
    }
  ],
  "bytecode": "0x6080806040523461005b576000805433600160a060020a031982168117835591600160a060020a03909116907f8be0079c531659141344cd1fd0a4f28419497f9722a3daafe3b4186f6b6457e09080a3610a1a90816100618239f35b600080fdfe6040608081526004908136101561001557600080fd5b6000917c010000000000000000000000000000000000000000000000000000000083350480634cb30ee8146107c057806352f7c988146106f75780636af405f614610558578063715018a614610506578063816949b51461047f5780638da5cb5b146104595780639fea7377146102ba578063b002249d14610227578063f2fde38b14610121578063fb0d2b50146100e05763fcee45f4146100b657600080fd5b346100dc5760203660031901126100dc5760209282913581526001845220549051908152f35b8280fd5b50346100dc57816003193601126100dc57816020936100fd610858565b9235815260028552818120600160a060020a03809416825285522054169051908152f35b5090346100dc5760203660031901126100dc57813591600160a060020a03918284168094036102235761015261095b565b83156101a0575050825473ffffffffffffffffffffffffffffffffffffffff19811683178455167f8be0079c531659141344cd1fd0a4f28419497f9722a3daafe3b4186f6b6457e08380a380f35b90602060849251917f08c379a0000000000000000000000000000000000000000000000000000000008352820152602660248201527f4f776e61626c653a206e6577206f776e657220697320746865207a65726f206160448201527f64647265737300000000000000000000000000000000000000000000000000006064820152fd5b8480fd5b509190346102b657816003193601126102b6578051918284549081815260208091019583527f8a35acfbc15ff81a39ae7d344fd709f28e8600b4aa8c65c6b64bfe7fe36bd19b92905b828210610296576102928686610288828b0383610873565b5191829182610917565b0390f35b8354600160a060020a031687529586019560019384019390910190610270565b5080fd5b5090346100dc57602091826003193601126104555780359267ffffffffffffffff9182851161045157366023860112156104515784810135906102fc826108c4565b9561030986519788610873565b8287528387016024858295028301019136831161044d576024869101915b83831061043d575050505061033a61095b565b8551938411610411576801000000000000000084116104115750600354836003558084106103db575b509060038652855b8381106103a957867f56aef294adb176650719ad99c27cf178915205af226a58c6f0e4c9bacc1b74666103a3888851918291826108dc565b0390a180f35b82517fc2575a0e9e593c00f959f8c92f12db2869c3395a3b0502d05e2516446f71f85b8201559181019160010161036b565b61040b90847fc2575a0e9e593c00f959f8c92f12db2869c3395a3b0502d05e2516446f71f85b91820191016109cd565b38610363565b8660416024927f4e487b7100000000000000000000000000000000000000000000000000000000835252fd5b8235815291810191869101610327565b8980fd5b8580fd5b8380fd5b5050346102b657816003193601126102b657600160a060020a0360209254169051908152f35b8284346105035780600319360112610503578151918291600354808552602080950194600383527fc2575a0e9e593c00f959f8c92f12db2869c3395a3b0502d05e2516446f71f85b92905b8282106104ec5761029286866104e2828b0383610873565b51918291826108dc565b8354875295860195600193840193909101906104ca565b80fd5b833461050357806003193601126105035761051f61095b565b80600160a060020a038154811981168355167f8be0079c531659141344cd1fd0a4f28419497f9722a3daafe3b4186f6b6457e08280a380f35b5090346100dc576020806003193601126104555782359267ffffffffffffffff9182851161045157366023860112156104515784820135610598816108c4565b956105a586519788610873565b8187528287016024848294028301019136831161044d57602401905b8282106106d4575050506105d361095b565b85519384116106a8576801000000000000000084116106a8578254848455808510610672575b50918652855b83811061063757867f023c0bbef93212a062a8b51d82c40fb6d8396cedf38372bf67778810697c7b296103a388885191829182610917565b8251600160a060020a03167f8a35acfbc15ff81a39ae7d344fd709f28e8600b4aa8c65c6b64bfe7fe36bd19b820155918101916001016105ff565b6106a290857f8a35acfbc15ff81a39ae7d344fd709f28e8600b4aa8c65c6b64bfe7fe36bd19b91820191016109cd565b386105f9565b6024876041857f4e487b7100000000000000000000000000000000000000000000000000000000835252fd5b8135600160a060020a03811681036106f35781529084019084016105c1565b8a80fd5b509190346102b657806003193601126102b65782356024359361071861095b565b841561079157811561076357508293817f032dc6a2d839eb179729a55633fdf1c41a1fc4739394154117005db2b354b9b594526001602052808386205582519182526020820152a180f35b9060249251917f331003b3000000000000000000000000000000000000000000000000000000008352820152fd5b602490858451917f3728b83d000000000000000000000000000000000000000000000000000000008352820152fd5b50346100dc5760603660031901126100dc5735906107dc610858565b91604435600160a060020a0392838216809203610451577f1cffd3e976bc822e6df68a8d7cc8fc412365a73b3a4abb6df213f4af9ba8d4ad9460609461082061095b565b848852600260205282882091169081885260205281872083600160a060020a031982541617905581519384526020840152820152a180f35b60243590600160a060020a038216820361086e57565b600080fd5b90601f8019910116810190811067ffffffffffffffff82111761089557604052565b7f4e487b7100000000000000000000000000000000000000000000000000000000600052604160045260246000fd5b67ffffffffffffffff81116108955760208091020190565b6020908160408183019282815285518094520193019160005b828110610903575050505090565b8351855293810193928101926001016108f5565b6020908160408183019282815285518094520193019160005b82811061093e575050505090565b8351600160a060020a031685529381019392810192600101610930565b600160a060020a0360005416330361096f57565b60646040517f08c379a000000000000000000000000000000000000000000000000000000000815260206004820152602060248201527f4f776e61626c653a2063616c6c6572206973206e6f7420746865206f776e65726044820152fd5b8181106109d8575050565b600081556001016109cd56fea2646970667358221220f7bb6e417bb0c2965bf94868b53de69dbf7e95749a1b6851d97f0f26b24f5dae64736f6c63430008110033",
  "immutableReferences": {},
  "source": "// SPDX-License-Identifier: MIT\r\npragma solidity ^0.8.17;\r\n\r\nimport {IMetreonConfig} from \"./interfaces/IMetreonConfig.sol\";\r\n\r\nimport {Ownable} from \"@openzeppelin/contracts/access/Ownable.sol\";\r\n\r\ncontract MetreonConfig is IMetreonConfig, Ownable {\r\n    mapping(uint256 => uint256) private _fees;\r\n    mapping(uint256 => mapping(address => address)) private _tokens;\r\n\r\n    uint256[] private _supportedChains;\r\n    address[] private _supportedTokens;\r\n\r\n    constructor() Ownable() {}\r\n\r\n    function getChainTokenId(\r\n        uint256 chainId,\r\n        address tokenId\r\n    ) external view override returns (address) {\r\n        return _tokens[chainId][tokenId];\r\n    }\r\n\r\n    function setChainTokenId(\r\n        uint256 chainId,\r\n        address tokenId,\r\n        address chainTokenId\r\n    ) external override onlyOwner {\r\n        _tokens[chainId][tokenId] = chainTokenId;\r\n\r\n        emit SetChainTokenId(chainId, tokenId, chainTokenId);\r\n    }\r\n\r\n    function getFee(\r\n        uint256 toChainId\r\n    ) external view override returns (uint256) {\r\n        return _fees[toChainId];\r\n    }\r\n\r\n    function setFee(\r\n        uint256 toChainId,\r\n        uint256 amount\r\n    ) external override onlyOwner {\r\n        if (amount == 0) revert InvalidAmount(amount);\r\n        if (toChainId == 0) revert InvalidChainId(toChainId);\r\n\r\n        _fees[toChainId] = amount;\r\n\r\n        emit SetFee(toChainId, amount);\r\n    }\r\n\r\n    function supportedChains() external view returns (uint256[] memory) {\r\n        return _supportedChains;\r\n    }\r\n\r\n    function updateSupportedChains(uint256[] memory chains) external onlyOwner {\r\n        _supportedChains = chains;\r\n\r\n        emit SupportedChains(chains);\r\n    }\r\n\r\n    function supportedTokens() external view returns (address[] memory) {\r\n        return _supportedTokens;\r\n    }\r\n\r\n    function updateSupportedTokens(address[] memory tokens) external onlyOwner {\r\n        _supportedTokens = tokens;\r\n\r\n        emit SupportedTokens(tokens);\r\n    }\r\n}\r\n",
  "sourcePath": "C:\\Users\\DELL\\Documents\\metreon.xyz\\smart-contracts\\contracts\\MetreonConfig.sol",
  "compiler": {
    "name": "solc",
    "version": "0.8.17+commit.8df45f5f.Emscripten.clang"
  },
  "schemaVersion": "3.4.11",
  "updatedAt": "2024-04-22T02:52:47.966Z",
  "networkType": "ethereum",
  "devdoc": {
    "kind": "dev",
    "methods": {
      "owner()": {
        "details": "Returns the address of the current owner."
      },
      "renounceOwnership()": {
        "details": "Leaves the contract without owner. It will not be possible to call `onlyOwner` functions. Can only be called by the current owner. NOTE: Renouncing ownership will leave the contract without an owner, thereby disabling any functionality that is only available to the owner."
      },
      "transferOwnership(address)": {
        "details": "Transfers ownership of the contract to a new account (`newOwner`). Can only be called by the current owner."
      }
    },
    "version": 1
  },
  "userdoc": {
    "kind": "user",
    "methods": {},
    "version": 1
  }
}