{
  "contractName": "SimpleMsg",
  "abi": [
    {
      "inputs": [
        {
          "internalType": "address",
          "name": "config_",
          "type": "address"
        },
        {
          "internalType": "address",
          "name": "metreon_",
          "type": "address"
        }
      ],
      "stateMutability": "nonpayable",
      "type": "constructor"
    },
    {
      "inputs": [
        {
          "internalType": "address",
          "name": "router",
          "type": "address"
        }
      ],
      "name": "InvalidRouter",
      "type": "error"
    },
    {
      "anonymous": false,
      "inputs": [
        {
          "indexed": false,
          "internalType": "address",
          "name": "sender",
          "type": "address"
        },
        {
          "indexed": false,
          "internalType": "address",
          "name": "receiver",
          "type": "address"
        },
        {
          "indexed": false,
          "internalType": "string",
          "name": "text",
          "type": "string"
        }
      ],
      "name": "NewMessage",
      "type": "event"
    },
    {
      "anonymous": false,
      "inputs": [
        {
          "indexed": true,
          "internalType": "address",
          "name": "previousOwner",
          "type": "address"
        },
        {
          "indexed": true,
          "internalType": "address",
          "name": "newOwner",
          "type": "address"
        }
      ],
      "name": "OwnershipTransferred",
      "type": "event"
    },
    {
      "inputs": [
        {
          "internalType": "uint256",
          "name": "",
          "type": "uint256"
        }
      ],
      "name": "_contracts",
      "outputs": [
        {
          "internalType": "address",
          "name": "",
          "type": "address"
        }
      ],
      "stateMutability": "view",
      "type": "function",
      "constant": true
    },
    {
      "inputs": [],
      "name": "getMetreon",
      "outputs": [
        {
          "internalType": "address",
          "name": "",
          "type": "address"
        }
      ],
      "stateMutability": "view",
      "type": "function",
      "constant": true
    },
    {
      "inputs": [
        {
          "components": [
            {
              "internalType": "bytes32",
              "name": "messageId",
              "type": "bytes32"
            },
            {
              "internalType": "uint256",
              "name": "fromChainId",
              "type": "uint256"
            },
            {
              "internalType": "address",
              "name": "sender",
              "type": "address"
            },
            {
              "internalType": "bytes",
              "name": "payload",
              "type": "bytes"
            },
            {
              "components": [
                {
                  "internalType": "address",
                  "name": "tokenId",
                  "type": "address"
                },
                {
                  "internalType": "uint256",
                  "name": "amount",
                  "type": "uint256"
                }
              ],
              "internalType": "struct Data.Token[]",
              "name": "tokens",
              "type": "tuple[]"
            }
          ],
          "internalType": "struct Data.IncomingMessage",
          "name": "message",
          "type": "tuple"
        }
      ],
      "name": "metreonReceive",
      "outputs": [],
      "stateMutability": "nonpayable",
      "type": "function"
    },
    {
      "inputs": [],
      "name": "owner",
      "outputs": [
        {
          "internalType": "address",
          "name": "",
          "type": "address"
        }
      ],
      "stateMutability": "view",
      "type": "function",
      "constant": true
    },
    {
      "inputs": [],
      "name": "renounceOwnership",
      "outputs": [],
      "stateMutability": "nonpayable",
      "type": "function"
    },
    {
      "inputs": [
        {
          "internalType": "address",
          "name": "newOwner",
          "type": "address"
        }
      ],
      "name": "transferOwnership",
      "outputs": [],
      "stateMutability": "nonpayable",
      "type": "function"
    },
    {
      "inputs": [
        {
          "internalType": "uint256",
          "name": "chainId",
          "type": "uint256"
        },
        {
          "internalType": "address",
          "name": "contractId",
          "type": "address"
        }
      ],
      "name": "setContract",
      "outputs": [],
      "stateMutability": "nonpayable",
      "type": "function"
    },
    {
      "inputs": [
        {
          "internalType": "uint256",
          "name": "toChainId",
          "type": "uint256"
        },
        {
          "internalType": "string",
          "name": "text",
          "type": "string"
        },
        {
          "internalType": "address",
          "name": "receiver",
          "type": "address"
        }
      ],
      "name": "sendMessage",
      "outputs": [
        {
          "internalType": "bytes32",
          "name": "",
          "type": "bytes32"
        }
      ],
      "stateMutability": "payable",
      "type": "function",
      "payable": true
    }
  ],
  "bytecode": "0x60a03461011157610d5a80380390601f19601f83011683019183831067ffffffffffffffff84111761011657808492604094855283398101031261011157610052602061004b83610145565b9201610145565b60008054600160a060020a0319808216339081178455604051959194600160a060020a039492939092908516907f8be0079c531659141344cd1fd0a4f28419497f9722a3daafe3b4186f6b6457e09080a38281169485156100e25750608052168160015416176001556002541617600255604051610c00908161015a82396080518181816101c401526106460152f35b807fd7f73334000000000000000000000000000000000000000000000000000000006024925260006004820152fd5b600080fd5b7f4e487b7100000000000000000000000000000000000000000000000000000000600052604160045260246000fd5b5190600160a060020a03821682036101115756fe6080604052600436101561001257600080fd5b7c01000000000000000000000000000000000000000000000000000000006000350480633a4daa661461070557806367acd8a0146106d0578063715018a61461066a578063737fb66b1461062657806389e865a9146105dc5780638da5cb5b146105b557806393c08ad3146101885763f2fde38b1461009057600080fd5b3461018357602036600319011261018357600435600160a060020a03808216809203610183576100be610a8a565b81156100ff5760005482600160a060020a0319821617600055167f8be0079c531659141344cd1fd0a4f28419497f9722a3daafe3b4186f6b6457e0600080a3005b60846040517f08c379a000000000000000000000000000000000000000000000000000000000815260206004820152602660248201527f4f776e61626c653a206e6577206f776e657220697320746865207a65726f206160448201527f64647265737300000000000000000000000000000000000000000000000000006064820152fd5b600080fd5b3461018357600319602036820112610183576004359067ffffffffffffffff82116101835760a09082360301126101835733600160a060020a037f00000000000000000000000000000000000000000000000000000000000000001603610585576040519060a0820182811067ffffffffffffffff82111761056c57604052806004013582526024810135602083015261022460448201610a76565b6040830152606481013567ffffffffffffffff8111610183578101366023820112156101835761025e903690602460048201359101610a3f565b6060830152608481013567ffffffffffffffff8111610183578101366023820112156101835760048101359067ffffffffffffffff821161056c57604051916102ac60208083020184610a01565b80835260208301913660246040840283010111610183579160248301925b602460408402820101841061052e57505050506080830152600154600160a060020a031660005b60808401515181101561044e57610318816103126084860186600401610afc565b90610b32565b35600160a060020a038116810361018357600160a060020a03604051917ffb0d2b5000000000000000000000000000000000000000000000000000000000835260248601356004840152166024820152602081604481865afa80156104425782906000906103fc575b6103d19250602061039c8361031260848a018a600401610afc565b0135600160a060020a03604051926103b3846109e5565b16825260208201526080870151906103cb8383610b5b565b52610b5b565b5060001981146103e3576001016102f1565b60e060020a634e487b7102600052601160045260246000fd5b50506020813d60201161043a575b8161041760209383610a01565b810103126101835751600160a060020a038116810361018357816103d191610381565b3d915061040a565b6040513d6000823e3d90fd5b606084015180518101606082602083019203126101835761047160208301610bb6565b604083015167ffffffffffffffff81116101835783019180603f84011215610183576020830151906104a282610a23565b906104b06040519283610a01565b8282526040838601011161018357600160a060020a0361050960607fc0e964a89ae4af54eaf553b02f07849ce6ddc028e52aec665236032bdd33a522976105036105299685996040602089019101610b6e565b01610bb6565b604051958695168552166020840152606060408401526060830190610b91565b0390a1005b604084360312610183576040806020602494825161054b816109e5565b61055489610a76565b815282890135838201528152019501949250506102ca565b60e060020a634e487b7102600052604160045260246000fd5b60246040517fd7f73334000000000000000000000000000000000000000000000000000000008152336004820152fd5b34610183576000366003190112610183576020600160a060020a0360005416604051908152f35b3461018357604036600319011261018357602435600160a060020a038116809103610183576004356000526003602052604060002090600160a060020a0319825416179055600080f35b34610183576000366003190112610183576020604051600160a060020a037f0000000000000000000000000000000000000000000000000000000000000000168152f35b3461018357600036600319011261018357610683610a8a565b6000805473ffffffffffffffffffffffffffffffffffffffff1981168255600160a060020a03167f8be0079c531659141344cd1fd0a4f28419497f9722a3daafe3b4186f6b6457e08280a3005b346101835760203660031901126101835760043560005260036020526020600160a060020a0360406000205416604051908152f35b60603660031901126101835760043567ffffffffffffffff602480358281116101835736602382011215610183576107469036908381600401359101610a3f565b9260443591600160a060020a039081841680940361018357826000526107946107a860209760038952846040600020541696604051938492338c850152606060408501526080840190610b91565b90606083015203601f198101835282610a01565b60405190878201828110888211176109cd5760405260008252604051966080880190888210908211176109cd576040528487528787019586526040870190815260608701918252836002541695604051957f127e8e4d0000000000000000000000000000000000000000000000000000000087526004870152888685818a5afa9586156104425760009661099e575b5085341061094157969492909361089a899795826040519a8b997f786134be000000000000000000000000000000000000000000000000000000008b52604060048c01525160448b015251166064890152516080608489015260c4880190610b91565b92518684036043190160a4880152805180855293880193908801916000905b82821061091757505050508492916000849283015203925af1908115610442576000916108ea575b50604051908152f35b90508181813d8311610910575b6109018183610a01565b810103126101835751826108e1565b503d6108f7565b83518051821687528a0151868b01528b998b995060409690960195909301926001909101906108b9565b606489601886604051927f08c379a000000000000000000000000000000000000000000000000000000000845260048401528201527f496e737566696369656e742066656520737570706c69656400000000000000006044820152fd5b9095508881813d83116109c6575b6109b68183610a01565b8101031261018357519489610837565b503d6109ac565b8360e060020a634e487b710260005260416004526000fd5b6040810190811067ffffffffffffffff82111761056c57604052565b90601f8019910116810190811067ffffffffffffffff82111761056c57604052565b67ffffffffffffffff811161056c57601f01601f191660200190565b929192610a4b82610a23565b91610a596040519384610a01565b829481845281830111610183578281602093846000960137010152565b3590600160a060020a038216820361018357565b600160a060020a03600054163303610a9e57565b60646040517f08c379a000000000000000000000000000000000000000000000000000000000815260206004820152602060248201527f4f776e61626c653a2063616c6c6572206973206e6f7420746865206f776e65726044820152fd5b903590601e1981360301821215610183570180359067ffffffffffffffff82116101835760200191604082023603831361018357565b9190811015610b42576040020190565b60e060020a634e487b7102600052603260045260246000fd5b8051821015610b42576020809202010190565b60005b838110610b815750506000910152565b8181015183820152602001610b71565b90602091610baa81518092818552858086019101610b6e565b601f01601f1916010190565b5190600160a060020a03821682036101835756fea26469706673582212201c691da4d4c753bb45bef0945804f7decbaf3b3abe12844a50f27fc25c1fef4d64736f6c63430008110033",
  "immutableReferences": {
    "1580": [
      {
        "length": 32,
        "start": 452
      },
      {
        "length": 32,
        "start": 1606
      }
    ]
  },
  "source": "// SPDX-License-Identifier: MIT\r\npragma solidity ^0.8.17;\r\n\r\nimport {Data} from \"../libraries/Data.sol\";\r\nimport {IMetreon} from \"../interfaces/IMetreon.sol\";\r\nimport {MetreonReceiver} from \"../MetreonReceiver.sol\";\r\n\r\n/// @title SimpleMsg - Sending cross chain messages\r\n/// @author devarogundade\r\ncontract SimpleMsg is MetreonReceiver {\r\n    IMetreon private _metreon;\r\n\r\n    // Keeps track of other network destination contracts\r\n    mapping(uint256 => address) public _contracts;\r\n\r\n    // Events\r\n    event NewMessage(address sender, address receiver, string text);\r\n\r\n    // Testnet contracts - https://docs.metreon.xyz/developers/testnet\r\n\r\n    constructor(\r\n        address config_,\r\n        address metreon_\r\n    ) MetreonReceiver(config_, metreon_) {\r\n        // Initialize metreon contract\r\n        _metreon = IMetreon(getMetreon());\r\n    }\r\n\r\n    function setContract(uint256 chainId, address contractId) external {\r\n        _contracts[chainId] = contractId;\r\n    }\r\n\r\n    function sendMessage(\r\n        uint256 toChainId,\r\n        string memory text,\r\n        address receiver\r\n    ) external payable returns (bytes32) {\r\n        // Build a cross chain message\r\n        Data.OutgoingMessage memory message = Data.OutgoingMessage({\r\n            toChainId: toChainId,\r\n            receiver: _contracts[toChainId],\r\n            payload: abi.encode(_msgSender(), text, receiver),\r\n            tokens: new Data.Token[](0)\r\n        });\r\n\r\n        // Calculate a cross chain message fee\r\n        uint256 fee = _metreon.estimateFee(toChainId);\r\n\r\n        require(msg.value >= fee, \"Insuficient fee supplied\");\r\n\r\n        // Send a cross chain message\r\n        return _metreon.sendMessage{value: fee}(message, address(0));\r\n    }\r\n\r\n    // Receive a cross chain message\r\n    function _metreonReceive(\r\n        Data.IncomingMessage memory message\r\n    ) internal override {\r\n        (address sender, string memory text, address receiver) = abi.decode(\r\n            message.payload,\r\n            (address, string, address)\r\n        );\r\n\r\n        emit NewMessage(sender, receiver, text);\r\n    }\r\n}\r\n",
  "sourcePath": "C:\\Users\\DELL\\Documents\\metreon.xyz\\smart-contracts\\contracts\\samples\\SimpleMsg.sol",
  "compiler": {
    "name": "solc",
    "version": "0.8.17+commit.8df45f5f.Emscripten.clang"
  },
  "schemaVersion": "3.4.11",
  "updatedAt": "2024-04-24T01:05:12.177Z",
  "networkType": "ethereum",
  "devdoc": {
    "author": "devarogundade",
    "kind": "dev",
    "methods": {
      "owner()": {
        "details": "Returns the address of the current owner."
      },
      "renounceOwnership()": {
        "details": "Leaves the contract without owner. It will not be possible to call `onlyOwner` functions. Can only be called by the current owner. NOTE: Renouncing ownership will leave the contract without an owner, thereby disabling any functionality that is only available to the owner."
      },
      "transferOwnership(address)": {
        "details": "Transfers ownership of the contract to a new account (`newOwner`). Can only be called by the current owner."
      }
    },
    "title": "SimpleMsg - Sending cross chain messages",
    "version": 1
  },
  "userdoc": {
    "kind": "user",
    "methods": {},
    "version": 1
  }
}