{
  "contractName": "SimpleMsg",
  "abi": [
    {
      "inputs": [],
      "stateMutability": "nonpayable",
      "type": "constructor"
    },
    {
      "inputs": [
        {
          "internalType": "address",
          "name": "router",
          "type": "address"
        }
      ],
      "name": "InvalidRouter",
      "type": "error"
    },
    {
      "anonymous": false,
      "inputs": [
        {
          "indexed": false,
          "internalType": "address",
          "name": "sender",
          "type": "address"
        },
        {
          "indexed": false,
          "internalType": "address",
          "name": "receiver",
          "type": "address"
        },
        {
          "indexed": false,
          "internalType": "string",
          "name": "text",
          "type": "string"
        }
      ],
      "name": "NewMessage",
      "type": "event"
    },
    {
      "anonymous": false,
      "inputs": [
        {
          "indexed": true,
          "internalType": "address",
          "name": "previousOwner",
          "type": "address"
        },
        {
          "indexed": true,
          "internalType": "address",
          "name": "newOwner",
          "type": "address"
        }
      ],
      "name": "OwnershipTransferred",
      "type": "event"
    },
    {
      "inputs": [],
      "name": "CONFIG",
      "outputs": [
        {
          "internalType": "address",
          "name": "",
          "type": "address"
        }
      ],
      "stateMutability": "view",
      "type": "function"
    },
    {
      "inputs": [],
      "name": "METREON",
      "outputs": [
        {
          "internalType": "address",
          "name": "",
          "type": "address"
        }
      ],
      "stateMutability": "view",
      "type": "function"
    },
    {
      "inputs": [
        {
          "internalType": "uint256",
          "name": "",
          "type": "uint256"
        }
      ],
      "name": "_contracts",
      "outputs": [
        {
          "internalType": "address",
          "name": "",
          "type": "address"
        }
      ],
      "stateMutability": "view",
      "type": "function"
    },
    {
      "inputs": [],
      "name": "getMetreon",
      "outputs": [
        {
          "internalType": "address",
          "name": "",
          "type": "address"
        }
      ],
      "stateMutability": "view",
      "type": "function"
    },
    {
      "inputs": [
        {
          "components": [
            {
              "internalType": "bytes32",
              "name": "messageId",
              "type": "bytes32"
            },
            {
              "internalType": "uint256",
              "name": "fromChainId",
              "type": "uint256"
            },
            {
              "internalType": "address",
              "name": "sender",
              "type": "address"
            },
            {
              "internalType": "bytes",
              "name": "payload",
              "type": "bytes"
            },
            {
              "components": [
                {
                  "internalType": "address",
                  "name": "tokenId",
                  "type": "address"
                },
                {
                  "internalType": "uint256",
                  "name": "amount",
                  "type": "uint256"
                }
              ],
              "internalType": "struct Data.Token[]",
              "name": "tokens",
              "type": "tuple[]"
            }
          ],
          "internalType": "struct Data.IncomingMessage",
          "name": "message",
          "type": "tuple"
        }
      ],
      "name": "metreonReceive",
      "outputs": [],
      "stateMutability": "nonpayable",
      "type": "function"
    },
    {
      "inputs": [],
      "name": "owner",
      "outputs": [
        {
          "internalType": "address",
          "name": "",
          "type": "address"
        }
      ],
      "stateMutability": "view",
      "type": "function"
    },
    {
      "inputs": [],
      "name": "renounceOwnership",
      "outputs": [],
      "stateMutability": "nonpayable",
      "type": "function"
    },
    {
      "inputs": [
        {
          "internalType": "address",
          "name": "newOwner",
          "type": "address"
        }
      ],
      "name": "transferOwnership",
      "outputs": [],
      "stateMutability": "nonpayable",
      "type": "function"
    },
    {
      "inputs": [
        {
          "internalType": "uint256",
          "name": "chainId",
          "type": "uint256"
        },
        {
          "internalType": "address",
          "name": "contractId",
          "type": "address"
        }
      ],
      "name": "setContract",
      "outputs": [],
      "stateMutability": "nonpayable",
      "type": "function"
    },
    {
      "inputs": [
        {
          "internalType": "uint256",
          "name": "toChainId",
          "type": "uint256"
        },
        {
          "internalType": "string",
          "name": "text",
          "type": "string"
        },
        {
          "internalType": "address",
          "name": "receiver",
          "type": "address"
        }
      ],
      "name": "sendMessage",
      "outputs": [
        {
          "internalType": "bytes32",
          "name": "",
          "type": "bytes32"
        }
      ],
      "stateMutability": "payable",
      "type": "function"
    }
  ],
  "bytecode": "0x60a080604052346100ac576000805433600160a060020a031980831682178455929091600160a060020a0316907f8be0079c531659141344cd1fd0a4f28419497f9722a3daafe3b4186f6b6457e09080a3730ee37cf3ab1c11f98a6d9f56979f3b5e3c308070908160805273824b50926bdd3019f926f3e5597d1277113fa0868160015416176001556002541617600255610c7490816100b2823960805181818161023801526106ba0152f35b600080fdfe6080604052600436101561001257600080fd5b7c01000000000000000000000000000000000000000000000000000000006000350480633a4daa661461077957806367acd8a014610744578063715018a6146106de578063737fb66b1461069a57806389e865a9146106505780638da5cb5b1461062957806393c08ad3146101fc578063d92e82e4146101cd578063f2fde38b146100da5763fb69f198146100a657600080fd5b346100d55760003660031901126100d5576020604051730ee37cf3ab1c11f98a6d9f56979f3b5e3c3080708152f35b600080fd5b346100d55760203660031901126100d557600435600160a060020a038082168092036100d557610108610afe565b81156101495760005482600160a060020a0319821617600055167f8be0079c531659141344cd1fd0a4f28419497f9722a3daafe3b4186f6b6457e0600080a3005b60846040517f08c379a000000000000000000000000000000000000000000000000000000000815260206004820152602660248201527f4f776e61626c653a206e6577206f776e657220697320746865207a65726f206160448201527f64647265737300000000000000000000000000000000000000000000000000006064820152fd5b346100d55760003660031901126100d557602060405173824b50926bdd3019f926f3e5597d1277113fa0868152f35b346100d5576003196020368201126100d5576004359067ffffffffffffffff82116100d55760a09082360301126100d55733600160a060020a037f000000000000000000000000000000000000000000000000000000000000000016036105f9576040519060a0820182811067ffffffffffffffff8211176105e057604052806004013582526024810135602083015261029860448201610aea565b6040830152606481013567ffffffffffffffff81116100d5578101366023820112156100d5576102d2903690602460048201359101610ab3565b6060830152608481013567ffffffffffffffff81116100d5578101366023820112156100d55760048101359067ffffffffffffffff82116105e0576040519161032060208083020184610a75565b808352602083019136602460408402830101116100d5579160248301925b60246040840282010184106105a257505050506080830152600154600160a060020a031660005b6080840151518110156104c25761038c816103866084860186600401610b70565b90610ba6565b35600160a060020a03811681036100d557600160a060020a03604051917ffb0d2b5000000000000000000000000000000000000000000000000000000000835260248601356004840152166024820152602081604481865afa80156104b6578290600090610470575b610445925060206104108361038660848a018a600401610b70565b0135600160a060020a036040519261042784610a59565b168252602082015260808701519061043f8383610bcf565b52610bcf565b50600019811461045757600101610365565b60e060020a634e487b7102600052601160045260246000fd5b50506020813d6020116104ae575b8161048b60209383610a75565b810103126100d55751600160a060020a03811681036100d55781610445916103f5565b3d915061047e565b6040513d6000823e3d90fd5b606084015180518101606082602083019203126100d5576104e560208301610c2a565b604083015167ffffffffffffffff81116100d55783019180603f840112156100d55760208301519061051682610a97565b906105246040519283610a75565b828252604083860101116100d557600160a060020a0361057d60607fc0e964a89ae4af54eaf553b02f07849ce6ddc028e52aec665236032bdd33a5229761057761059d9685996040602089019101610be2565b01610c2a565b604051958695168552166020840152606060408401526060830190610c05565b0390a1005b6040843603126100d557604080602060249482516105bf81610a59565b6105c889610aea565b8152828901358382015281520195019492505061033e565b60e060020a634e487b7102600052604160045260246000fd5b60246040517fd7f73334000000000000000000000000000000000000000000000000000000008152336004820152fd5b346100d55760003660031901126100d5576020600160a060020a0360005416604051908152f35b346100d55760403660031901126100d557602435600160a060020a0381168091036100d5576004356000526003602052604060002090600160a060020a0319825416179055600080f35b346100d55760003660031901126100d5576020604051600160a060020a037f0000000000000000000000000000000000000000000000000000000000000000168152f35b346100d55760003660031901126100d5576106f7610afe565b6000805473ffffffffffffffffffffffffffffffffffffffff1981168255600160a060020a03167f8be0079c531659141344cd1fd0a4f28419497f9722a3daafe3b4186f6b6457e08280a3005b346100d55760203660031901126100d55760043560005260036020526020600160a060020a0360406000205416604051908152f35b60603660031901126100d55760043567ffffffffffffffff602480358281116100d557366023820112156100d5576107ba9036908381600401359101610ab3565b9260443591600160a060020a03908184168094036100d5578260005261080861081c60209760038952846040600020541696604051938492338c850152606060408501526080840190610c05565b90606083015203601f198101835282610a75565b6040519087820182811088821117610a41576040526000825260405196608088019088821090821117610a41576040528487528787019586526040870190815260608701918252836002541695604051957f127e8e4d0000000000000000000000000000000000000000000000000000000087526004870152888685818a5afa9586156104b657600096610a12575b508534106109b557969492909361090e899795826040519a8b997f786134be000000000000000000000000000000000000000000000000000000008b52604060048c01525160448b015251166064890152516080608489015260c4880190610c05565b92518684036043190160a4880152805180855293880193908801916000905b82821061098b57505050508492916000849283015203925af19081156104b65760009161095e575b50604051908152f35b90508181813d8311610984575b6109758183610a75565b810103126100d5575182610955565b503d61096b565b83518051821687528a0151868b01528b998b9950604096909601959093019260019091019061092d565b606489601886604051927f08c379a000000000000000000000000000000000000000000000000000000000845260048401528201527f496e737566696369656e742066656520737570706c69656400000000000000006044820152fd5b9095508881813d8311610a3a575b610a2a8183610a75565b810103126100d5575194896108ab565b503d610a20565b8360e060020a634e487b710260005260416004526000fd5b6040810190811067ffffffffffffffff8211176105e057604052565b90601f8019910116810190811067ffffffffffffffff8211176105e057604052565b67ffffffffffffffff81116105e057601f01601f191660200190565b929192610abf82610a97565b91610acd6040519384610a75565b8294818452818301116100d5578281602093846000960137010152565b3590600160a060020a03821682036100d557565b600160a060020a03600054163303610b1257565b60646040517f08c379a000000000000000000000000000000000000000000000000000000000815260206004820152602060248201527f4f776e61626c653a2063616c6c6572206973206e6f7420746865206f776e65726044820152fd5b903590601e19813603018212156100d5570180359067ffffffffffffffff82116100d5576020019160408202360383136100d557565b9190811015610bb6576040020190565b60e060020a634e487b7102600052603260045260246000fd5b8051821015610bb6576020809202010190565b60005b838110610bf55750506000910152565b8181015183820152602001610be5565b90602091610c1e81518092818552858086019101610be2565b601f01601f1916010190565b5190600160a060020a03821682036100d55756fea2646970667358221220dbbe4f24cc2a228c7910928960fb2836953b7c4fac41c71718a43b57b310429a64736f6c63430008110033",
  "immutableReferences": {
    "1580": [
      {
        "length": 32,
        "start": 568
      },
      {
        "length": 32,
        "start": 1722
      }
    ]
  },
  "source": "// SPDX-License-Identifier: MIT\r\npragma solidity ^0.8.17;\r\n\r\nimport {Data} from \"../libraries/Data.sol\";\r\nimport {IMetreon} from \"../interfaces/IMetreon.sol\";\r\nimport {MetreonReceiver} from \"../MetreonReceiver.sol\";\r\n\r\n/// @title SimpleMsg - Sending cross chain messages\r\n/// @author devarogundade\r\ncontract SimpleMsg is MetreonReceiver {\r\n    IMetreon private _metreon;\r\n\r\n    // Keeps track of other network destination contracts\r\n    mapping(uint256 => address) public _contracts;\r\n\r\n    // Events\r\n    event NewMessage(address sender, address receiver, string text);\r\n\r\n    // Testnet contracts - https://docs.metreon.xyz/developers/testnet\r\n    address public constant CONFIG = 0x824B50926Bdd3019F926F3E5597d1277113Fa086;\r\n    address public constant METREON =\r\n        0x0Ee37Cf3AB1C11F98A6D9f56979f3B5E3c308070;\r\n\r\n    constructor() MetreonReceiver(CONFIG, METREON) {\r\n        // Initialize metreon contract\r\n        _metreon = IMetreon(getMetreon());\r\n    }\r\n\r\n    function setContract(uint256 chainId, address contractId) external {\r\n        _contracts[chainId] = contractId;\r\n    }\r\n\r\n    function sendMessage(\r\n        uint256 toChainId,\r\n        string memory text,\r\n        address receiver\r\n    ) external payable returns (bytes32) {\r\n        // Build a cross chain message\r\n        Data.OutgoingMessage memory message = Data.OutgoingMessage({\r\n            toChainId: toChainId,\r\n            receiver: _contracts[toChainId],\r\n            payload: abi.encode(_msgSender(), text, receiver),\r\n            tokens: new Data.Token[](0)\r\n        });\r\n\r\n        // Calculate a cross chain message fee\r\n        uint256 fee = _metreon.estimateFee(toChainId);\r\n\r\n        require(msg.value >= fee, \"Insuficient fee supplied\");\r\n\r\n        // Send a cross chain message\r\n        return _metreon.sendMessage{value: fee}(message, address(0));\r\n    }\r\n\r\n    // Receive a cross chain message\r\n    function _metreonReceive(\r\n        Data.IncomingMessage memory message\r\n    ) internal override {\r\n        (address sender, string memory text, address receiver) = abi.decode(\r\n            message.payload,\r\n            (address, string, address)\r\n        );\r\n\r\n        emit NewMessage(sender, receiver, text);\r\n    }\r\n}\r\n",
  "sourcePath": "C:\\Users\\DELL\\Documents\\metreon.xyz\\smart-contracts\\contracts\\samples\\SimpleMsg.sol",
  "compiler": {
    "name": "solc",
    "version": "0.8.17+commit.8df45f5f.Emscripten.clang"
  },
  "schemaVersion": "3.4.11",
  "updatedAt": "2024-04-22T13:59:50.317Z",
  "devdoc": {
    "author": "devarogundade",
    "kind": "dev",
    "methods": {
      "owner()": {
        "details": "Returns the address of the current owner."
      },
      "renounceOwnership()": {
        "details": "Leaves the contract without owner. It will not be possible to call `onlyOwner` functions. Can only be called by the current owner. NOTE: Renouncing ownership will leave the contract without an owner, thereby disabling any functionality that is only available to the owner."
      },
      "transferOwnership(address)": {
        "details": "Transfers ownership of the contract to a new account (`newOwner`). Can only be called by the current owner."
      }
    },
    "title": "SimpleMsg - Sending cross chain messages",
    "version": 1
  },
  "userdoc": {
    "kind": "user",
    "methods": {},
    "version": 1
  }
}