{
  "contractName": "TokenPool",
  "abi": [
    {
      "inputs": [
        {
          "internalType": "address",
          "name": "config_",
          "type": "address"
        },
        {
          "internalType": "address",
          "name": "metreon_",
          "type": "address"
        }
      ],
      "stateMutability": "nonpayable",
      "type": "constructor"
    },
    {
      "inputs": [
        {
          "internalType": "address",
          "name": "router",
          "type": "address"
        }
      ],
      "name": "InvalidRouter",
      "type": "error"
    },
    {
      "anonymous": false,
      "inputs": [
        {
          "indexed": true,
          "internalType": "address",
          "name": "previousOwner",
          "type": "address"
        },
        {
          "indexed": true,
          "internalType": "address",
          "name": "newOwner",
          "type": "address"
        }
      ],
      "name": "OwnershipTransferred",
      "type": "event"
    },
    {
      "inputs": [],
      "name": "owner",
      "outputs": [
        {
          "internalType": "address",
          "name": "",
          "type": "address"
        }
      ],
      "stateMutability": "view",
      "type": "function"
    },
    {
      "inputs": [],
      "name": "renounceOwnership",
      "outputs": [],
      "stateMutability": "nonpayable",
      "type": "function"
    },
    {
      "inputs": [
        {
          "internalType": "address",
          "name": "newOwner",
          "type": "address"
        }
      ],
      "name": "transferOwnership",
      "outputs": [],
      "stateMutability": "nonpayable",
      "type": "function"
    },
    {
      "inputs": [
        {
          "internalType": "address",
          "name": "to",
          "type": "address"
        },
        {
          "components": [
            {
              "internalType": "bytes32",
              "name": "messageId",
              "type": "bytes32"
            },
            {
              "internalType": "uint256",
              "name": "fromChainId",
              "type": "uint256"
            },
            {
              "internalType": "address",
              "name": "sender",
              "type": "address"
            },
            {
              "internalType": "bytes",
              "name": "payload",
              "type": "bytes"
            },
            {
              "components": [
                {
                  "internalType": "address",
                  "name": "tokenId",
                  "type": "address"
                },
                {
                  "internalType": "uint256",
                  "name": "amount",
                  "type": "uint256"
                }
              ],
              "internalType": "struct Data.Token[]",
              "name": "tokens",
              "type": "tuple[]"
            }
          ],
          "internalType": "struct Data.IncomingMessage",
          "name": "message",
          "type": "tuple"
        }
      ],
      "name": "withdrawTo",
      "outputs": [],
      "stateMutability": "nonpayable",
      "type": "function"
    },
    {
      "inputs": [
        {
          "internalType": "address",
          "name": "tokenId",
          "type": "address"
        },
        {
          "internalType": "uint256",
          "name": "amount",
          "type": "uint256"
        }
      ],
      "name": "withdrawTokens",
      "outputs": [],
      "stateMutability": "nonpayable",
      "type": "function"
    }
  ],
  "bytecode": "0x60a0346100fe5761084380380390601f19601f83011683019183831067ffffffffffffffff8411176101035780849260409485528339810103126100fe57610052602061004b83610132565b9201610132565b60008054600160a060020a03198082163390811784556040519195600160a060020a0395909490938616907f8be0079c531659141344cd1fd0a4f28419497f9722a3daafe3b4186f6b6457e09080a3838216156100cf5750608052169060015416176001556040516106fc90816101478239608051816102450152f35b807fd7f73334000000000000000000000000000000000000000000000000000000006024925260006004820152fd5b600080fd5b7f4e487b7100000000000000000000000000000000000000000000000000000000600052604160045260246000fd5b5190600160a060020a03821682036100fe5756fe6040608081526004908136101561001557600080fd5b6000917c0100000000000000000000000000000000000000000000000000000000833504806306b091f9146104f557806362f924fc146101f6578063715018a6146101a15780638da5cb5b146101775763f2fde38b1461007457600080fd5b346101735760203660031901126101735761008d6105b0565b906100966105cb565b600160a060020a038092169283156100f0575050825473ffffffffffffffffffffffffffffffffffffffff19811683178455167f8be0079c531659141344cd1fd0a4f28419497f9722a3daafe3b4186f6b6457e08380a380f35b90602060849251917f08c379a0000000000000000000000000000000000000000000000000000000008352820152602660248201527f4f776e61626c653a206e6577206f776e657220697320746865207a65726f206160448201527f64647265737300000000000000000000000000000000000000000000000000006064820152fd5b8280fd5b50503461019d578160031936011261019d57600160a060020a0360209254169051908152f35b5080fd5b83346101f357806003193601126101f3576101ba6105cb565b80600160a060020a038154811981168355167f8be0079c531659141344cd1fd0a4f28419497f9722a3daafe3b4186f6b6457e08280a380f35b80fd5b5091346101f35760031992828436011261019d576102126105b0565b9260249485359467ffffffffffffffff8087116104f15760a08786019388360301126104f157600160a060020a039233847f000000000000000000000000000000000000000000000000000000000000000016036104c357968881013590608401875b61027f828b61063d565b90508110156104bf57610292828b61063d565b8210156104aa578782020187813603126104a65787518881018181108782111761049157895281358881169081810361048d5791868f928d8d6044928e97865260209788808098019a01358a5260015416915196879586947ffb0d2b500000000000000000000000000000000000000000000000000000000086528501528301525afa90811561048357898d9493928c92869161043e575b5016898d73eeeeeeeeeeeeeeeeeeeeeeeeeeeeeeeeeeeeeeee830361039f5750505050508180809251818115610396575b8b8b1690f11561038c575b600019811461037757600101610275565b8a8960118a60e060020a634e487b7102835252fd5b86513d8a823e3d90fd5b506108fc61035b565b9584966103f096519451968795869485937fa9059cbb000000000000000000000000000000000000000000000000000000008552840160209093929193600160a060020a0360408201951681520152565b03925af1801561043457610406575b5050610366565b8161042592903d1061042d575b61041d8183610673565b8101906106ae565b5038806103ff565b503d610413565b89513d8d823e3d90fd5b939495505050508181813d831161047c575b61045a8183610673565b8101031261047857518881168103610478579089898d94933861032a565b8b80fd5b503d610450565b8a513d8e823e3d90fd5b8c80fd5b8d8c60418d60e060020a634e487b7102835252fd5b8980fd5b8b8a60328b60e060020a634e487b7102835252fd5b8880f35b84517fd7f7333400000000000000000000000000000000000000000000000000000000815233818801528990fd5b8580fd5b5090346101735780600319360112610173576020610577926105156105b0565b61051d6105cb565b600160a060020a0386818154169186518098819682957fa9059cbb00000000000000000000000000000000000000000000000000000000845260243591840160209093929193600160a060020a0360408201951681520152565b0393165af19081156105a7575061058c575080f35b6105a39060203d811161042d5761041d8183610673565b5080f35b513d84823e3d90fd5b60043590600160a060020a03821682036105c657565b600080fd5b600160a060020a036000541633036105df57565b60646040517f08c379a000000000000000000000000000000000000000000000000000000000815260206004820152602060248201527f4f776e61626c653a2063616c6c6572206973206e6f7420746865206f776e65726044820152fd5b903590601e19813603018212156105c6570180359067ffffffffffffffff82116105c6576020019160408202360383136105c657565b90601f8019910116810190811067ffffffffffffffff82111761069557604052565b60e060020a634e487b7102600052604160045260246000fd5b908160209103126105c6575180151581036105c6579056fea26469706673582212209d8ddd73681d4b4bb203a2aba87d2fdee073d99d00133a09cb8cb0af71cb8c0264736f6c63430008110033",
  "immutableReferences": {
    "2052": [
      {
        "length": 32,
        "start": 581
      }
    ]
  },
  "source": "// SPDX-License-Identifier: MIT\r\npragma solidity ^0.8.17;\r\n\r\nimport {Pool} from \"./pool.sol\";\r\nimport {Data} from \"../libraries/Data.sol\";\r\n\r\nimport {IMetreonConfig} from \"../interfaces/IMetreonConfig.sol\";\r\n\r\nimport {IERC20} from \"@openzeppelin/contracts/token/ERC20/IERC20.sol\";\r\n\r\ncontract TokenPool is Pool {\r\n    IMetreonConfig private _config;\r\n\r\n    constructor(address config_, address metreon_) Pool(metreon_) {\r\n        _config = IMetreonConfig(config_);\r\n    }\r\n\r\n    function _withdrawTo(\r\n        address to,\r\n        Data.IncomingMessage calldata message\r\n    ) internal override {\r\n        for (uint256 index = 0; index < message.tokens.length; index++) {\r\n            Data.Token memory token = message.tokens[index];\r\n\r\n            address tokenId = _config.getChainTokenId(\r\n                message.fromChainId,\r\n                token.tokenId\r\n            );\r\n\r\n            if (tokenId == 0xEeeeeEeeeEeEeeEeEeEeeEEEeeeeEeeeeeeeEEeE) {\r\n                payable(to).transfer(token.amount);\r\n            } else {\r\n                IERC20 tokenContract = IERC20(tokenId);\r\n                tokenContract.transfer(to, token.amount);\r\n            }\r\n        }\r\n    }\r\n\r\n    function _withdrawTokens(\r\n        address tokenId,\r\n        uint256 amount,\r\n        address to\r\n    ) internal override {\r\n        IERC20 tokenContract = IERC20(tokenId);\r\n        tokenContract.transfer(to, amount);\r\n    }\r\n}\r\n",
  "sourcePath": "C:\\Users\\DELL\\Documents\\metreon.xyz\\smart-contracts\\contracts\\pool\\TokenPool.sol",
  "compiler": {
    "name": "solc",
    "version": "0.8.17+commit.8df45f5f.Emscripten.clang"
  },
  "schemaVersion": "3.4.11",
  "updatedAt": "2024-04-17T21:32:19.805Z",
  "devdoc": {
    "kind": "dev",
    "methods": {
      "owner()": {
        "details": "Returns the address of the current owner."
      },
      "renounceOwnership()": {
        "details": "Leaves the contract without owner. It will not be possible to call `onlyOwner` functions. Can only be called by the current owner. NOTE: Renouncing ownership will leave the contract without an owner, thereby disabling any functionality that is only available to the owner."
      },
      "transferOwnership(address)": {
        "details": "Transfers ownership of the contract to a new account (`newOwner`). Can only be called by the current owner."
      }
    },
    "version": 1
  },
  "userdoc": {
    "kind": "user",
    "methods": {},
    "version": 1
  }
}