{
  "contractName": "TokenPool",
  "abi": [
    {
      "inputs": [
        {
          "internalType": "address",
          "name": "config_",
          "type": "address"
        },
        {
          "internalType": "address",
          "name": "metreon_",
          "type": "address"
        }
      ],
      "stateMutability": "nonpayable",
      "type": "constructor"
    },
    {
      "inputs": [
        {
          "internalType": "address",
          "name": "router",
          "type": "address"
        }
      ],
      "name": "InvalidRouter",
      "type": "error"
    },
    {
      "anonymous": false,
      "inputs": [
        {
          "indexed": true,
          "internalType": "address",
          "name": "previousOwner",
          "type": "address"
        },
        {
          "indexed": true,
          "internalType": "address",
          "name": "newOwner",
          "type": "address"
        }
      ],
      "name": "OwnershipTransferred",
      "type": "event"
    },
    {
      "inputs": [],
      "name": "owner",
      "outputs": [
        {
          "internalType": "address",
          "name": "",
          "type": "address"
        }
      ],
      "stateMutability": "view",
      "type": "function",
      "constant": true
    },
    {
      "inputs": [],
      "name": "renounceOwnership",
      "outputs": [],
      "stateMutability": "nonpayable",
      "type": "function"
    },
    {
      "inputs": [
        {
          "internalType": "address",
          "name": "newOwner",
          "type": "address"
        }
      ],
      "name": "transferOwnership",
      "outputs": [],
      "stateMutability": "nonpayable",
      "type": "function"
    },
    {
      "inputs": [
        {
          "internalType": "address",
          "name": "to",
          "type": "address"
        },
        {
          "components": [
            {
              "internalType": "bytes32",
              "name": "messageId",
              "type": "bytes32"
            },
            {
              "internalType": "uint256",
              "name": "fromChainId",
              "type": "uint256"
            },
            {
              "internalType": "address",
              "name": "sender",
              "type": "address"
            },
            {
              "internalType": "bytes",
              "name": "payload",
              "type": "bytes"
            },
            {
              "components": [
                {
                  "internalType": "address",
                  "name": "tokenId",
                  "type": "address"
                },
                {
                  "internalType": "uint256",
                  "name": "amount",
                  "type": "uint256"
                }
              ],
              "internalType": "struct Data.Token[]",
              "name": "tokens",
              "type": "tuple[]"
            }
          ],
          "internalType": "struct Data.IncomingMessage",
          "name": "message",
          "type": "tuple"
        }
      ],
      "name": "withdrawTo",
      "outputs": [],
      "stateMutability": "nonpayable",
      "type": "function"
    },
    {
      "inputs": [
        {
          "internalType": "address",
          "name": "tokenId",
          "type": "address"
        },
        {
          "internalType": "uint256",
          "name": "amount",
          "type": "uint256"
        }
      ],
      "name": "withdrawTokens",
      "outputs": [],
      "stateMutability": "nonpayable",
      "type": "function"
    }
  ],
  "bytecode": "0x60a0346100fe5761097b80380390601f19601f83011683019183831067ffffffffffffffff8411176101035780849260409485528339810103126100fe57610052602061004b83610132565b9201610132565b60008054600160a060020a03198082163390811784556040519195600160a060020a0395909490938616907f8be0079c531659141344cd1fd0a4f28419497f9722a3daafe3b4186f6b6457e09080a3838216156100cf575060805216906001541617600155604051610834908161014782396080518161022e0152f35b807fd7f73334000000000000000000000000000000000000000000000000000000006024925260006004820152fd5b600080fd5b7f4e487b7100000000000000000000000000000000000000000000000000000000600052604160045260246000fd5b5190600160a060020a03821682036100fe5756fe6040608081526004908136101561001557600080fd5b6000917c0100000000000000000000000000000000000000000000000000000000833504806306b091f91461044b57806362f924fc146101df578063715018a61461018a5780638da5cb5b146101605763f2fde38b1461007457600080fd5b3461015c57602036600319011261015c5761008d61048a565b906100966104a5565b600160a060020a038092169283156100f0575050825473ffffffffffffffffffffffffffffffffffffffff19811683178455167f8be0079c531659141344cd1fd0a4f28419497f9722a3daafe3b4186f6b6457e08380a380f35b906020608492519160e560020a62461bcd028352820152602660248201527f4f776e61626c653a206e6577206f776e657220697320746865207a65726f206160448201527f64647265737300000000000000000000000000000000000000000000000000006064820152fd5b8280fd5b505034610186578160031936011261018657600160a060020a0360209254169051908152f35b5080fd5b83346101dc57806003193601126101dc576101a36104a5565b80600160a060020a038154811981168355167f8be0079c531659141344cd1fd0a4f28419497f9722a3daafe3b4186f6b6457e08280a380f35b80fd5b5091346101dc57600319928284360112610186576101fb61048a565b9260249485359467ffffffffffffffff8087116104475760a087860193883603011261044757600160a060020a039233847f0000000000000000000000000000000000000000000000000000000000000000160361041957968881013590608401875b610268828b610500565b90508110156104155761027b828b610500565b821015610400578782020187813603126103fc578751888101818110878211176103e75789528135888116908181036103e35791868f928d8d6044928e97865260209788808098019a01358a5260015416915196879586947ffb0d2b500000000000000000000000000000000000000000000000000000000086528501528301525afa9182156103d9579189918d94938592610397575b5050168773eeeeeeeeeeeeeeeeeeeeeeeeeeeeeeeeeeeeeeee8203610384575050818080925181811561037b575b8b8b1690f115610371575b600019811461035c5760010161025e565b8a8960118a60e060020a634e487b7102835252fd5b86513d8a823e3d90fd5b506108fc610340565b909161039293505191610571565b61034b565b92509293505081813d83116103d2575b6103b18183610536565b810103126103ce575187811681036103ce5790878b923880610312565b8a80fd5b503d6103a7565b8a513d8e823e3d90fd5b8c80fd5b8d8c60418d60e060020a634e487b7102835252fd5b8980fd5b8b8a60328b60e060020a634e487b7102835252fd5b8880f35b84517fd7f7333400000000000000000000000000000000000000000000000000000000815233818801528990fd5b8580fd5b505034610186573660031901126101dc5761048761046761048a565b61046f6104a5565b600160a060020a039060243591808554169116610571565b80f35b60043590600160a060020a03821682036104a057565b600080fd5b600160a060020a036000541633036104b957565b606460405160e560020a62461bcd02815260206004820152602060248201527f4f776e61626c653a2063616c6c6572206973206e6f7420746865206f776e65726044820152fd5b903590601e19813603018212156104a0570180359067ffffffffffffffff82116104a0576020019160408202360383136104a057565b90601f8019910116810190811067ffffffffffffffff82111761055857604052565b60e060020a634e487b7102600052604160045260246000fd5b919060405192602093848101937fa9059cbb000000000000000000000000000000000000000000000000000000008552600160a060020a038094166024830152604482015260448152608081019267ffffffffffffffff928285108486111761055857169060c0810184811084821117610558576040528584527f5361666545524332303a206c6f772d6c6576656c2063616c6c206661696c656460a0820152600080958192519082855af1903d1561071a573d92831161070357906106579392916040519261064a88601f19601f8401160185610536565b83523d868885013e610725565b8051918215918483156106df575b5050509050156106725750565b6084906040519060e560020a62461bcd0282526004820152602a60248201527f5361666545524332303a204552433230206f7065726174696f6e20646964206e60448201527f6f742073756363656564000000000000000000000000000000000000000000006064820152fd5b919381809450010312610186578201519081151582036101dc575080388084610665565b60248560e060020a634e487b710281526041600452fd5b906106579392506060915b919290156107895750815115610739575090565b3b156107425790565b606460405160e560020a62461bcd02815260206004820152601d60248201527f416464726573733a2063616c6c20746f206e6f6e2d636f6e74726163740000006044820152fd5b82519091501561079c5750805190602001fd5b6040519060e560020a62461bcd0282528160208060048301528251908160248401526000935b8285106107e5575050604492506000838284010152601f80199101168101030190fd5b84810182015186860160440152938101938593506107c256fea2646970667358221220fed354b30eef9a33257d2093168b08149be8d6809f9285e47e5c01c5eb801f1e64736f6c63430008110033",
  "immutableReferences": {
    "2566": [
      {
        "length": 32,
        "start": 558
      }
    ]
  },
  "source": "// SPDX-License-Identifier: MIT\r\npragma solidity ^0.8.17;\r\n\r\nimport {Pool} from \"./pool.sol\";\r\nimport {Data} from \"../libraries/Data.sol\";\r\n\r\nimport {IMetreonConfig} from \"../interfaces/IMetreonConfig.sol\";\r\n\r\nimport {IERC20} from \"@openzeppelin/contracts/token/ERC20/IERC20.sol\";\r\nimport {SafeERC20} from \"@openzeppelin/contracts/token/ERC20/utils/SafeERC20.sol\";\r\n\r\ncontract TokenPool is Pool {\r\n    using SafeERC20 for IERC20;\r\n\r\n    IMetreonConfig private _config;\r\n\r\n    constructor(address config_, address metreon_) Pool(metreon_) {\r\n        _config = IMetreonConfig(config_);\r\n    }\r\n\r\n    function _withdrawTo(\r\n        address to,\r\n        Data.IncomingMessage calldata message\r\n    ) internal override {\r\n        for (uint256 index = 0; index < message.tokens.length; index++) {\r\n            Data.Token memory token = message.tokens[index];\r\n\r\n            address tokenId = _config.getChainTokenId(\r\n                message.fromChainId,\r\n                token.tokenId\r\n            );\r\n\r\n            if (tokenId == 0xEeeeeEeeeEeEeeEeEeEeeEEEeeeeEeeeeeeeEEeE) {\r\n                payable(to).transfer(token.amount);\r\n            } else {\r\n                IERC20 tokenContract = IERC20(tokenId);\r\n                tokenContract.safeTransfer(to, token.amount);\r\n            }\r\n        }\r\n    }\r\n\r\n    function _withdrawTokens(\r\n        address tokenId,\r\n        uint256 amount,\r\n        address to\r\n    ) internal override {\r\n        IERC20 tokenContract = IERC20(tokenId);\r\n        tokenContract.safeTransfer(to, amount);\r\n    }\r\n}\r\n",
  "sourcePath": "C:\\Users\\DELL\\Documents\\metreon.xyz\\smart-contracts\\contracts\\pool\\TokenPool.sol",
  "compiler": {
    "name": "solc",
    "version": "0.8.17+commit.8df45f5f.Emscripten.clang"
  },
  "schemaVersion": "3.4.11",
  "updatedAt": "2024-04-24T07:16:10.329Z",
  "networkType": "ethereum",
  "devdoc": {
    "kind": "dev",
    "methods": {
      "owner()": {
        "details": "Returns the address of the current owner."
      },
      "renounceOwnership()": {
        "details": "Leaves the contract without owner. It will not be possible to call `onlyOwner` functions. Can only be called by the current owner. NOTE: Renouncing ownership will leave the contract without an owner, thereby disabling any functionality that is only available to the owner."
      },
      "transferOwnership(address)": {
        "details": "Transfers ownership of the contract to a new account (`newOwner`). Can only be called by the current owner."
      }
    },
    "version": 1
  },
  "userdoc": {
    "kind": "user",
    "methods": {},
    "version": 1
  }
}